:020000040800F2
:10400000C8130020494100085141000853410008ED
:1040100055410008574100085941000800000000C0
:104020000000000000000000000000005B410008EC
:104030005D410008000000005F4100086141000888
:1040400063410008634100086341000863410008C0
:1040500063410008634100086341000863410008B0
:1040600063410008634100086341000863410008A0
:104070006341000863410008634100086341000890
:10408000634100086341000863410008000000002C
:104090000000000000000000000000006341000874
:1040A0006341000863410008634100086341000860
:1040B0008D52000863410008634100086341000815
:1040C0006341000863410008634100086341000840
:1040D0006341000861560008634100082957000841
:1040E0006341000863410008634100086341000820
:1040F0006341000863410008000000000000000068
:104100000000000000000000634100086341000857
:1041100063410008634100086341000863410008EF
:1041200063410008634100086341000863410008DF
:1041300063410008DFF80CD000F07EFC0048004727
:10414000C58F0008C813002006488047064800476E
:10415000FEE7FEE7FEE7FEE7FEE7FEE7FEE7FEE737
:10416000FEE7FEE71552000835410008D2B201E033
:1041700000F8012B491EFBD270470022F6E710B56C
:1041800013460A4604461946FFF7F0FF204610BDC5
:10419000F0B480EA0102D40F4200B2EB410F02D228
:1041A0000246084611464A0042D0C30DDDB2C1F3B3
:1041B000C752AD1A202D35DAC1F3160141F40002C1
:1041C00004B15242C5F1200602FA06F12A41104418
:1041D000B3EBD05F23D0C4B1012DA0EBC35009DCF9
:1041E000F0BC4FF0004202EAC352DBB200F500001F
:1041F00000F0D0B9400000F1807000EBC350A0F196
:10420000807040EAD170490009E0490841EAC07174
:10421000A0EBC35000F50000400800EBC350F0BC19
:1042200000F0AFB96142012202EB4101001BF6E749
:10423000F0BC704781F00041AAE780F00040A7E79A
:1042400080EA010210B502F00043400022D04A008B
:104250001FD0010E01EB1261C0F35600C2F35602EB
:1042600040F4000042F40002A0FB022000047F3969
:10427000140400D0401C50EA124001D44000491EF2
:10428000C2B20C0604EBD010401C4008802A02D0B9
:1042900003E0002010BD20F00100002900DA00201A
:1042A000184310BD30B480EA010202F0004530F03E
:1042B000004221F0004013D090B1C30DD40DC2F3E1
:1042C0001601C0F31600E41A41F4000140F40002A4
:1042D0007D34914201D3641C00E04900002C02DAD5
:1042E00030BC002070474FF400000023914201D3FE
:1042F000891A034340084FEA4101F7D151B1914275
:1043000002D14FF0004105E002D24FF0010101E07F
:104310006FF0010103EBC450284430BC00F031B908
:104320002DE9FE4F81EA030404F0004421F000412E
:1043300000944FF0000B23F0004350EA01045ED0DC
:1043400052EA03045BD0C3F30A54C1F30A552C4468
:10435000A4F2F3340194A0FB0254C1F3130141F41D
:104360008011C3F3130343F4801301FB024400FBE9
:10437000034E840A970A44EA815447EA8357A4FB10
:10438000076802958D0A05FB07854FEA932C04FB0D
:104390000C542705029D4FEA065847EA1637B5EB3D
:1043A00008056EEB070C870E920E47EA811742EA6A
:1043B0008312A7FB0201B6EB0B0164EB00042B0D8B
:1043C00043EA0C335E1844EB1C50DA465146E7FBD7
:1043D0000201C5F313044FEA0B3343EA14534FEAC7
:1043E0000432019C43EA0603A4F10C040294009CED
:1043F000CDE900B400F064F903B0BDE8F08F00200F
:104400000146F9E7C10F80EAE0700844CA07962325
:10441000002100F0BFB896230022114600F0BAB880
:104420000EB540F2334102910021CDE900110A4658
:104430000B4600F045F903B000BD00F0004220F04B
:104440000040C10DC0F3160040F400007F2901DADE
:1044500000207047962903DCC1F19601C84001E0B5
:1044600096398840002AF4D04042704700F000425C
:1044700030F000400AD0C10D01F56071C0F31600A4
:1044800042EA0151C208400711437047002001462B
:10449000704701F0004330B421F0004150EA0102BE
:1044A00006D00A0DA2F56072C1F31301002A02DCE6
:1044B00030BC00207047440F44EAC104C100E0183A
:1044C00030BC00EBC25000F05CB80000002801DBFB
:1044D000C0F10040002901DBC1F100418142704779
:1044E000002801DBC0F10040002901DBC1F10041DF
:1044F0008842704730B50B46014600202022012437
:1045000009E021FA02F59D4205D303FA02F5491BA1
:1045100004FA02F52844151EA2F10102F1DC30BDB7
:104520002DE9F05F0546002092469B4688460646E8
:10453000814640241BE0284641464746224600F07B
:104540009CFA53465A46C01A914110D31146184658
:10455000224600F083FA2D1A67EB01084F462246E7
:104560000120002100F07AFA17EB00094E41201ECD
:10457000A4F10104DFDC484631462A464346BDE843
:10458000F09F0029A8BF7047401C490008BF20F0D9
:104590000100704710B4B0FA80FC00FA0CF050EA49
:1045A000010404BF10BC704749B1CCF1200421FACA
:1045B00004F411FA0CF118BF012121430843A3EBC5
:1045C0000C01CB1D4FEA00614FEA102042BF0020D2
:1045D00010BC704700EBC35010440029A4BF10BCAE
:1045E0007047401C490008BF20F0010010BC704714
:1045F000420005D0C0F3C7525242914201DC002074
:10460000704700EBC1507047F0B4002802DCF0BCEA
:1046100000207047C0F3C751C0F3160040F40000FB
:10462000CA0701D14000491E3F2202EB610500226A
:1046300011464FF4000626FA01F31344D4188442BD
:1046400001D8001B1A464000491C1729F3DD510010
:10465000814202D24FF0FF3100E0002102EBC55051
:10466000F0BCFFF78EBF10B541000CD0C0F3C751AE
:10467000962908DC7E2909DC06DB410204D000F023
:10468000004040F07E5010BD002010BDC1F19604E6
:10469000C4F1200100FA01F1E040FFF772FFA040F1
:1046A00010BD10B5141E73F1000408DA401C41F16E
:1046B000000192185B411A4301D120F0010010BDA6
:1046C0002DE9F04D92469B4611B1B1FA81F202E01C
:1046D000B0FA80F22032904600F0C0F904460F464E
:1046E00040EA0A0041EA0B0153465A46084313D0F8
:1046F000114653EA010019D0C8F14002504600F0BB
:10470000BCF905460E4650465946424600F0A6F909
:10471000084305D0012004E020463946BDE8F08D6D
:104720000020054346EAE0762C4337430A986305A8
:10473000E40AA0EB08000022FD0A44EA47540A30CC
:1047400002D500200146E9E7010510196941DDE9BC
:10475000084500196941BDE8F04DA2E72DE9FE4F7B
:10476000804681EA0300C00F0C46009021F0004112
:1047700023F00045B8EB0200A94105D2404621468E
:1047800090461C460B46024623F00040104347D09B
:10479000270DC7F30A00C3F30A510290401A019093
:1047A00040286BDAC3F3130040F4801B0098924654
:1047B00020B10023D2EB030A63EB0B0B019859469F
:1047C000C0F14002504600F049F906460D465046F9
:1047D0005946019A00F061F910EB0800614100248C
:1047E00087EA115284EAE7731A4340D0009A62B311
:1047F000019A012A4FEA075215DC001B61EB020106
:104800004FF0004202EA0752CDE90042001C41F598
:10481000801132462B46FFF753FF03B0BDE8F08FFF
:1048200040462146F9E7001B61EB0201001C41F5FF
:10483000801300185B412018A2F5001747EB030115
:1048400040EAD570B6196D4111E06D084FEA3606A1
:1048500045EAC0754FEA0752001B61EB0201001CDC
:1048600041F5801149084FEA3000001951413246A4
:104870002B4603B0BDE8F04FFFF713BF00980122AD
:1048800040000023D0EB020263EBE0730098214666
:104890004FEAE074B8EB000061EB0401E9E783F054
:1048A00000435BE781F0004158E72DE9F04D81EAD4
:1048B000030404F0004B21F0004514464FF0000AB9
:1048C00023F0004150EA050220D054EA01021DD035
:1048D000C5F30A570246C5F31303C1F31300C1F32E
:1048E0000A5640F4801543F48013A7EB0608101B0A
:1048F000D64608F2FD3873EB050002D308F1010833
:1049000001E092185B41B8F1000F03DA0020014684
:10491000BDE8F08D00204FF48011064684460EE07D
:10492000171B73EB050705D3121B63EB0503064347
:104930004CEA010C49084FEA300092185B4150EAFA
:104940000107EDD152EA030012D082EA040083EAA3
:104950000501084305D0101BAB4106D201220023FC
:1049600006E000224FF0004302E06FF00102531016
:104970001AEB06004CEB085110EB0A0041EB0B015F
:10498000BDE8F04DFFF78DBEC1F30A52C1F313012C
:1049900040F2FF3341F480119A4202DA00200146CE
:1049A000704740F233439A42A2F2334202DC524251
:1049B00000F063B800F052B810B500F0004420F0E9
:1049C0000040C20DC0F3160040F400007F2A07DA51
:1049D0007D2A00DA7D22763A00FA02F1002008E012
:1049E000962A09DCA2F1760100FA01F1C2F19602E1
:1049F000D040FFF7C6FD01E0963A9040002C00D071
:104A0000404210BD30B5041E71F1000404DB4FF0CC
:104A10000044404264EB0101141E73F1000405DB05
:104A20001C464FF00043524263EB0403994208BF17
:104A3000904230BD00207047064C074D06E0E0680C
:104A400040F0010394E8070098471034AC42F6D3D5
:104A5000FFF774FB18B1000838B10008202A04DB06
:104A6000203A00FA02F1002070479140C2F1200381
:104A700020FA03F3194390407047202A04DB203AC0
:104A800021FA02F00021704721FA02F3D040C2F16E
:104A900020029140084319467047202A06DBCB17B5
:104AA000203A41FA02F043EAE07306E041FA02F3E9
:104AB000D040C2F12002914008431946704770B5BA
:104AC0008C1810F8015B15F0070301D110F8013BB9
:104AD0002A1106D110F8012B03E010F8016B01F840
:104AE000016B5B1EF9D12B0705D40023521E0DD498
:104AF00001F8013BFAE710F8013BCB1A921C03E0E6
:104B000013F8015B01F8015B521EF9D5A142D8D31D
:104B1000002070BD0149C8607047000000200240BD
:104B200030B5044604254FF4302000F0A3F80546C4
:104B3000042D17D10C48006940F002000A490861B1
:104B400008464461006940F0400008614FF430209D
:104B500000F090F805460448006941F6FD710840F0
:104B600001490861284630BD0020024004200B495D
:104B7000C96801F0010109B101200EE00749C968C7
:104B800001F0040109B1022007E00449C96801F0FD
:104B9000100109B1032000E004207047002002400A
:104BA0000348006940F08000014908617047000037
:104BB000002002400549096821F01001034A1160F4
:104BC000114609680143116070470000002002404F
:104BD00078B506460C46042500200090E80200F057
:104BE00049F80546042D24D11348006940F001001E
:104BF000114908613480E80200F03CF80546042DB4
:104C000010D1B01C0090200C00990880E80200F040
:104C100031F805460848006941F6FE71084006492A
:104C2000086106E00448006941F6FE710840024947
:104C30000861284678BD000000200240014608684F
:104C40007047000001460020034A106800F0380059
:104C500008431060704700000020024002480349EA
:104C600048600348486070472301674500200240C0
:104C7000AB89EFCD00B502460423FFF777FF03466B
:104C800003E0FFF773FF0346521E012B01D1002AF8
:104C9000F7D102B90523184600BD2DE9F0410246BF
:104CA00000250026002000230024002791F803C0DF
:104CB0000CF00F0591F803C00CF0100CBCF1000FC4
:104CC00003D091F802C04CEA050591F800C0BCF190
:104CD000000F31D0146800202BE04FF0010C0CFACB
:104CE00000F3B1F800C00CEA03069E4220D1830015
:104CF0004FF00F0C0CFA03F7BC4305FA03FC4CEA27
:104D0000040491F803C0BCF1280F06D14FF0010C48
:104D10000CFA00FCC2F814C00AE091F803C0BCF120
:104D2000480F05D14FF0010C0CFA00FCC2F810C07E
:104D3000401C0828D1D31460B1F800C0BCF1FF0FAB
:104D400034DD546800202EE000F1080C4FF001081B
:104D500008FA0CF3B1F800C00CEA03069E4221D118
:104D600083004FF00F0C0CFA03F7BC4305FA03FC69
:104D70004CEA040491F803C0BCF1280F05D100F1FE
:104D8000080C08FA0CF8C2F8148091F803C0BCF1C2
:104D9000480F07D100F1080C4FF0010808FA0CF891
:104DA000C2F81080401C0828CED35460BDE8F081C2
:104DB000F0B50A46002300240021002500F000463B
:104DC000B6F1004F02D11D4EF16901E01B4E716832
:104DD000C0F3034583B200F44016B6F5401F08D176
:104DE00021F07061154E766826F07066134F7E6074
:104DF00012E000F48016B6F5801F06D1032606FAED
:104E000005F4A14341F0706106E0460D360103FA56
:104E100006F6B14341F0706122B1460D360103FA46
:104E200006F6314300F00046B6F1004F02D1034EC2
:104E3000F16101E0014E7160F0BD00000000014031
:104E400038B504460020009000F0DEF8012000F0A4
:104E50009DF91848006800F00200009000980228B0
:104E600025D11020FFF7A6FE0220FFF7EBFE002061
:104E700000F080F9002000F09BF94FF4806000F012
:104E80008BF92146002000F0A5F9012000F09CF9E3
:104E900000BF392000F048F90028FAD0022000F0C5
:104EA000A7F900BF00F05EF90828FBD101E000BFC0
:104EB000FEE738BD0010024070B5002100230F222C
:104EC000C47804B3154C246804F4E064C4F5E064C9
:104ED000210AC1F10403CA40447804FA03F184783A
:104EE0001440214309010E4C0678A155047804F0C2
:104EF0001F050124AC4005786D11AD0005F1E025DA
:104F0000C5F8004109E0047804F01F050124AC4015
:104F1000044D0678761145F8264070BD0CED00E092
:104F200000E400E080E100E002490143024A116030
:104F3000704700000000FA050CED00E029B1064AB8
:104F4000D2690243044BDA6104E0034AD269824326
:104F5000014BDA61704700000010024029B1064A97
:104F600092690243044B9A6104E0034A92698243C6
:104F7000014B9A61704700000010024010B52148B3
:104F8000006840F010001F4908600846006820F0E3
:104F9000030008600846006840F00200086000F066
:104FA00033F8012000F0F2F800BF212000F0BCF837
:104FB0000028FAD01020FFF7FDFD0120FFF742FE88
:104FC000002000F0D7F84FF4806000F0E5F80020F2
:104FD00000F0EEF84FF46011002000F0FBF8012023
:104FE00000F0F2F800BF392000F09EF80028FAD057
:104FF000022000F0FDF800BF00F0B4F80828FBD153
:1050000010BD0000002002400F48006840F0010081
:105010000D490860084640680C4908400A49486044
:10502000084600680A4908400749086008460068C1
:1050300020F4802008600846406820F4FE004860A4
:105040004FF41F0088607047001002400000FFF816
:10505000FFFFF6FE30B500210022002400232D4D75
:105060006D6805F00C0121B1042905D0082923D170
:1050700005E0294D056022E0274D05601FE0254D24
:105080006D6805F47012234D6D6805F480340225B7
:1050900005EB92421CB9214D554305600BE01D4DB7
:1050A0006D6805F400351DB11C4D5543056002E0E7
:1050B000194D5543056002E0174D056000BF00BF64
:1050C000144D6D6805F0F0010909154D6B5C05681C
:1050D000DD4045600F4D6D6805F4E061090A104D33
:1050E0006B5C4568DD4085600A4D6D6805F4605174
:1050F000C90A0B4D6B5C4568DD40C560054D6D68A8
:1051000005F44041890B074D6B5CC568B5FBF3F5B1
:10511000056130BD0010024000127A0000093D0018
:10512000260000203600002010B501460022002392
:1051300000204A11012A02D1094C236806E0022A04
:1051400002D1074C236A01E0054C636A01F01F029B
:10515000012494401C400CB1012000E0002010BD4F
:10516000001002400248406800F00C007047000048
:105170000010024001460020034A506820F0F00071
:105180000843506070470000001002400149086069
:10519000704700000000424201460020034A506868
:1051A00020F4E060084350607047000000100240A7
:1051B00001460020034A506820F4605040EAC100D4
:1051C00050607047001002400149086670470000B7
:1051D0000000424202460020044B586820F47C1034
:1051E00042EA01031843014B586070470010024027
:1051F00001460020034A506820F003000843506035
:10520000704700000010024010B51020FFF718FE94
:1052100010BD000010B51748006840F001001549A6
:10522000086008464068144908401249486008462A
:105230000068124908400F4908600846006820F4D9
:10524000802008600846406820F4FE0048604FF463
:105250001F008860FFF7D8FF09480A490860FFF778
:105260008DFE01210846FFF779FE01210648FFF770
:105270009FFD10BD001002400000FFF8FFFFF6FE8A
:105280000040000808ED00E00002300010B50121E8
:10529000880700F013F802480068804710BD00003E
:1052A0003C00002021B1028842F08002028004E02C
:1052B00002884FF67F731A4002807047CA43028209
:1052C000704721B1028842F00102028004E00288A6
:1052D0004FF6FE731A40028070470146888C704773
:1052E0001AB183890B43838102E083898B438381D5
:1052F0007047000070B5002400220023058C4FF693
:10530000FE7635400584028C8388048B4FF68F75BA
:105310002C40B51E2C400D882C43751E2A400D894B
:105320002A434D882A43144DA8420BD0134DA8425E
:1053300008D0134DA84205D0124DA84202D0124DFC
:10534000A84213D14FF6F7752A404D892A434FF6EC
:10535000FB752A408D882A434FF6FF652B404FF698
:10536000FF552B408D892B43CD892B4383800483AC
:10537000CD888586028470BD002C01400034014038
:105380000040014000440140004801400A4600211D
:10539000018B4FF6F77319401143018370470000EA
:1053A00070B5002400220023058C4FF6EF763540BF
:1053B0000584028C8388048B48F6FF752C404FF6D9
:1053C000FF452C400D884FF6FF7606EA05252C4355
:1053D0004FF6DF752A400D8906EA05152A434D88E8
:1053E00006EA05152A43154DA84202D0144DA842DD
:1053F0001DD14FF67F752A404D894FF6FF7606EA9C
:1054000005152A434FF6BF752A408D8806EA051513
:105410002A434FF6FF352B404FF2FF752B408D8905
:1054200006EA85052B43CD8906EA85052B43838053
:105430000483CD880587028470BD0000002C0140E4
:10544000003401400A460021018B4FF2FF731940DE
:105450004FF6FF7303EA02231943018370470000EC
:1054600070B5002400220023058C4FF6FF663540FE
:105470000584028C8388848B4FF68F752C404FF601
:10548000FC752C400D882C434FF6FF552A400D89A2
:105490004FF6FF7606EA05252A434D8806EA0525DC
:1054A0002A43154DA84202D0144DA8421DD14FF2F7
:1054B000FF752A404D894FF6FF7606EA05252A43F7
:1054C0004FF6FF352A408D8806EA05252A434EF619
:1054D000FF752B404DF6FF752B408D8906EA0515AB
:1054E0002B43CD8906EA05152B4383808483CD8821
:1054F0008587028470BD0000002C0140003401400B
:105500000A460021818B4FF6F773194011438183BE
:105510007047000070B5002200230024058C4EF671
:10552000FF7635400584038C8488828B48F6FF75AE
:105530002A404FF6FF452A400D884FF6FF7606EACF
:1055400005252A434DF6FF752B400D8906EA0535E2
:105550002B434D8806EA05352B430B4DA84202D05C
:105560000A4DA84208D14BF6FF752C408D894FF6A5
:10557000FF7606EA85152C4384808283CD88A0F8C7
:105580004050038470BD0000002C014000340140F5
:105590000A460021818B4FF2FF7319404FF6FF73CB
:1055A00003EA02231943818370478186704701878C
:1055B000704781877047A0F840107047002202882A
:1055C0001D4B98420ED01D4B98420BD0B0F1804F2E
:1055D00008D01B4B984205D01A4B984202D01A4B68
:1055E000984204D14FF68F731A404B881A43174BD9
:1055F000984207D0164B984204D04FF6FF431A400A
:10560000CB881A4302808B8883850B8803850A4BDD
:1056100098420BD0094B984208D00E4B984205D0C7
:105620000D4B984202D00D4B984201D10B7A038664
:105630000123838270470000002C014000340140A8
:105640000004004000080040000C00400010004032
:105650000014004000400140004401400048014067
:1056600070B52F484068C4882D480068858840F28E
:1056700025512C4800F0CDF800B340F225512948BF
:1056800000F0ACF8274800F07FF9C6B2681C80B281
:105690000546234909680989884200DB002520481E
:1056A0000068C088A84209D01D48006800681C49ED
:1056B0000968898846541A480068858040F2277135
:1056C000184800F0A6F850B340F22661154800F0E3
:1056D00085F8134840688088A04215D0601C80B2CD
:1056E00004460F4949680989884200DB00240C48B8
:1056F000406800680A4A5268D288815C094800F014
:1057000048F907484068C480054840688088A0423E
:1057100005D1002240F22771024800F0A4F870BDC4
:10572000700D00200038014070B52A484068C488D8
:1057300028480068858840F22551274800F069F81C
:10574000D8B1254800F020F9C6B2681C80B20546E1
:10575000204909680989884200DB00251D48006846
:10576000C088A84209D01B48006800681949096828
:105770008988465417480068858040F2277116488A
:1057800000F047F828B3134840688088A04215D03D
:10579000601C80B204460F4949680989884200DBD1
:1057A00000240C48406800680A4A5268D288815C2C
:1057B000094800F0EEF807484068C4800548406892
:1057C0008088A04205D1002240F22771024800F0F3
:1057D0004AF870BD7C0D00200048004010B5002242
:1057E000002340F66A14A14200D100BF0A1201242E
:1057F0009440A3B2DC43048010BD21B1828942F4FD
:105800000052828104E082894DF6FF731A40828142
:10581000704770B50246002400230025002040F6A2
:105820006A16B14200D100BFC1F3421501F01F0357
:10583000012606FA03F3012D02D19689334006E0D2
:10584000022D02D1168A334001E0968A33400C12B1
:10585000012606FA04F41688344013B10CB1012075
:1058600000E0002070BDF0B50346002400260025AE
:10587000002040F66A17B94200D100BF1846C1F3B4
:10588000421401F01F06012707FA06F5012C01D189
:105890000C3004E0022C01D1103000E014301AB1B9
:1058A00007682F43076002E00768AF430760F0BD59
:1058B0002DE9F04786B005460E460024A24600BFFB
:1058C000A1460027B08900B100BF2F462C8A4CF6B4
:1058D000FF700440F08804432C82AC894EF6F3102C
:1058E0000440B08831890843718908430443AC817E
:1058F000AC8A4FF6FF400440B0890443AC8201A853
:10590000FFF7A8FB1F48874202D1DDF810A001E095
:10591000DDF80CA0A88900F4004040B10AEBCA00F1
:1059200000EB0A1031684900B0FBF1F807E00AEB20
:10593000CA0000EB0A1031688900B0FBF1F864205E
:10594000B8FBF0F004012009642101FB1089A8894B
:1059500000F4004040B1322000EBC900B0FBF1F090
:1059600000F00700044308E0322000EB0910642136
:10597000B0FBF1F000F00F0004432C8106B0BDE84D
:10598000F08700000038014001468888C0F3080015
:105990007047C1F308028280704700000FB4054BC6
:1059A00010B503A9044A029800F0C0F910BC5DF8D4
:1059B00014FB00006D77000814020020410008026B
:1059C00018BF04200A0E18BF40F001004FF07F42BC
:1059D00032EA010108BF40F00200012808BF05209B
:1059E000704700214FF07E50FEF75CBC0121FEF7AE
:1059F000FFBDFEF7CDBB00210846FEF753BC612179
:105A00004FF0E040FEF7F4BD6FF05E010807FEF7CF
:105A1000EFBD00002DE9F04D0D4614464FF07F41DB
:105A2000B1EB440F9EBF4FF0FF312960BDE8F08D10
:105A30004FF0004040EA0421C4F3C750783810F01A
:105A40001F024A4B4FEA601CC2F120067B44C4F39C
:105A5000C750A0F178004FEA601003EB800053F8C4
:105A60002C3008BFD0E901C612D0D0F804C0934052
:105A70002CFA06F73B4387680CFA02FC27FA06F873
:105A8000C06807FA02F2F0404CEA080C42EA00064D
:105A9000A3FB0132ACFB01C0A6FB016101EB0C06CC
:105AA0008E4234BF4FF0010C4FF0000CC11861441E
:105AB000BCF1000F02D0814202D903E0814201D241
:105AC000012000E00020104400F120024FEA92186B
:105AD0008006CA0C40EA42304F03C5F80080FEF74A
:105AE00091FC82463846FEF796FC6FF01201FEF7F5
:105AF0007FFD07463046FEF78EFC6FF02501FEF76E
:105B000077FD834639465046FEF742FB5946FEF77D
:105B10003FFB00F500666FF30B0651463046FEF77B
:105B200089FB3946FEF786FB5946FEF786FB10498E
:105B3000FEF786FB07460F493046FEF781FB3946E4
:105B4000FEF726FB07460C493046FEF779FB39463F
:105B5000FEF71EFB14F0004F08BFBDE8F08DC8F142
:105B6000805180F000402960BDE8F08DA85600000B
:105B7000DB0FC92F22AAFD290000C92F02E008C8A7
:105B8000121F08C1002AFAD170477047002001E0B7
:105B900001C1121F002AFBD17047000001490860B3
:105BA00070470000180200202DE9FF5F82B000213D
:105BB000DDE90430020DDDF840B0034318D044F6AF
:105BC0001050A2F2FF3242431514119801281FD041
:105BD000A5EB0B00401C5FEA000A4FF000064E4F99
:105BE000DFF83891B046504615D5CAF1000413E0ED
:105BF000119801244AA3012801D16FEA0B010298F0
:105C0000119AC0E90031C0E9024206B0BDE8F09F38
:105C1000CBF10000DFE704460021404A491842EB7F
:105C20000450CDE9001012E0E00707D032463B46B1
:105C300040464946FEF774FB8046894632463B465D
:105C400010461946FEF76CFB06460F466410002C02
:105C5000EAD1DDE90401DDE90023BAF1000F06DA3B
:105C6000FEF75EFB42464B46FEF75AFB05E0FEF7A9
:105C70001CFE42464B46FEF718FE04460E46002226
:105C8000284BFEF7BFFE03D84FF0FF30014607E078
:105C90000022254B20463146FEF760FDFEF774FEDC
:105CA000102409E0002C0ADB0A220023FEF738FC4E
:105CB000039B30321A55641E50EA0102F2D1641C73
:105CC000039AC4F111031444119A012A03D001224A
:105CD00008430DD10AE0084304D000204FF0110B17
:105CE000119072E7A3EB0B056D1E0DE05B4504DD23
:105CF0004FF0000205F1010504E003DA4FF0000265
:105D0000A5F10105002AECD002981199C0E90231F1
:105D1000C0E9004579E70000000014400000F03FB2
:105D2000300000000000F0430000E03F2DE9FF4F8D
:105D300095B09B468946064600250FE2252877D177
:105D400000242746F84A0121059400E0044316F890
:105D5000013F203B01FA03F01042F7D130782A28A6
:105D600011D06FF02F033078A0F13002092A16D835
:105D7000059A44F0020402EB820203EB4202104453
:105D8000761C0590EFE759F8042B0592002A03DAF8
:105D9000504244F40054059044F00204761C3078DC
:105DA0002E2816D116F8010F44F004042A280DD02D
:105DB0006FF02F023078A0F13003092B09D807EBE0
:105DC000870302EB4303C718761CF3E759F8047BFB
:105DD000761C30786C280FD006DC4C2817D0682849
:105DE0000DD06A2814D104E0742810D07A280FD17D
:105DF0000DE044F400140AE044F4801401E044F49B
:105E000040147278824202D104F58014761C761C0C
:105E1000307866280BD013DC582877D009DC0028AE
:105E200075D04528F6D04628F4D047281AD19DE1F0
:105E300018E0632835D0642879D0652812D195E11F
:105E4000702873D008DC6728F1D069286FD06E28DD
:105E50000DD06F2806D1B5E073282CD0752875D0E9
:105E6000782874D05A46179990476D1C75E1C4F391
:105E70000250022809D003280DD0D9F800100428B8
:105E80000DD00D6009F1040967E1D9F80010EA1797
:105E9000C1E90052F6E7D9F800100D80F2E70D7065
:105EA000F0E719F8041B8DF8001000208DF80100B0
:105EB000EA46012003E059F804AB4FF0FF306107D8
:105EC0004FF0000102D40DE008F101018846B9420B
:105ED0000FDA8045F8DB1AF808100029F4D108E041
:105EE00008F1010188468142FADB1AF808100029FE
:105EF000F6D105985B46A0EB080721463846179A6D
:105F000000F094FA284400EB080507E04DE029E191
:105F10000DE01AF8010B5A4617999047B8F101089D
:105F2000F7D25B4621463846179A13E142E00A222F
:105F30000092C4F302524FF0000A022A08D059F826
:105F400004CB032A4FEAEC710AD00DE029E02AE0E5
:105F500009F1070121F00702F2E802C1914609E0C8
:105F60000FFA8CFC4FEAEC71042A03D14FFA8CFC37
:105F70004FEAEC71002907DA0A460021DCF1000C37
:105F800061EB02012D2202E0220504D52B228DF8BF
:105F90000420012203E0E20701D02022F7E7904627
:105FA00059E00A2102E010220DE010214FF0000A12
:105FB00000910BE010224FF0000A44F0040408277F
:105FC000009203E008224FF0000A0092C4F302524C
:105FD000022A05D059F804CB0021032A08D009E091
:105FE00009F1070121F00702F2E802C1914605E03C
:105FF0001FFA8CFC042A01D10CF0FF0C4FF00008B2
:10600000220728D5702806D0009B83F0100353EA9E
:106010000A0305D00EE040228DF80420012208E09A
:106020005CEA010206D030228DF804208DF80500CC
:1060300002229046009B83F0080353EA0A030AD128
:106040005CEA010201D1620705D530228DF80420F7
:106050004FF001087F1E582804D034A003900EA8EA
:1060600002900DE036A0F9E753466046009AFEF72D
:1060700057FA84460398825C0298401E0290027090
:106080005CEA0100F0D1029806A9081A00F1200A82
:10609000600702D524F4803400E00127574502DD73
:1060A000A7EB0A0000E0002000EB0A010090059831
:1060B0004144401A0590E00306D45B462146179AF6
:1060C000059800F0B3F90544002706E001A85A46F8
:1060D000C05D179990476D1C7F1C4745F6DBE003B8
:1060E0000CD55B462146179A059800F09FF90544A8
:1060F00004E030205A46179990476D1C0099481EBD
:1061000000900029F5DC08E0029802995A460078D0
:10611000491C0291179990476D1CBAF10001AAF130
:10612000010AF1DC65E10000092801003031323359
:1061300034353637383961626364656600000000C3
:1061400030313233343536373839414243444546AD
:106150000000000000F058F90544761C3078002853
:106160007FF4ECAD19B02846BDE8F08F620700D48B
:10617000062709F1070222F0070CFCE80223E1469A
:1061800003F000485FEA080C02D00FF2702C0DE01B
:106190005FEA045C02D50FF2682C07E05FEAC47C7A
:1061A00002D00FF2602C01E0AFF2700C4FF0FF381C
:1061B00023F00043CDF850C065280CD006DC4528FC
:1061C00009D046281DD047283DD13DE0662818D08B
:1061D00067287ED138E00021112F01DB112000E07B
:1061E000781CCDE9000106A90EA8FFF7DDFCDDE96A
:1061F0000F010E9A03910021009207F1010A049108
:106200004DE04FF000400097CDE9011006A90EA81F
:10621000FFF7CAFCDDE90F0203920E9B11990022E1
:10622000DDF80CA00093049211B9791C00EB010A6F
:10623000B7EB0A0004D4C0F1FF3007F1010A049063
:10624000AAEB0700019044E0012F00DA01270021AA
:10625000112F01DD112000E03846CDE9000106A92B
:106260000EA8FFF7A1FCDDE90F010E9A03910021B2
:1062700004910092BA4621070CD40399514500DAE3
:106280008A46BAF1010F05DD009AAAF10101515CBD
:10629000302908D0B84202DA10F1040F06DA0121E1
:1062A000CDE9011015E0AAF10101E9E7002805DCBC
:1062B000049901440491AAEB000102E0411C5145FC
:1062C00000DD8A460499401A401C01904FF00040BE
:1062D0000290200704D40198504501DBCDF80480DA
:1062E00000208DF84F0002980DF14F07B0F1004FDC
:1062F00025D02B200E9002984FF0020800280CDACF
:10630000404202902D200E9007E00A210298FEF7ED
:10631000F1F83031029007F8011DB8F10001A8F141
:106320000108F2DC02980028EFD1791E0E9808705F
:10633000307800F0200040F0450007F8020D12A868
:10634000C01B00F107081498007800B1012000EB91
:106350000A01019801EBE07105984144401A401E82
:106360000590E00306D45B462146179A059800F095
:106370005DF805441498007818B15A46179990476B
:106380006D1CE00324D55B462146179A059800F062
:106390004DF805441CE00498002807DBDDE9030103
:1063A000884203DD0098405C179901E0179930207E
:1063B0005A469047049805F10105401C0490019845
:1063C000401E019004D12E205A46179990476D1C0B
:1063D000BAF10001AAF1010ADDDC05E017F8010BB2
:1063E0005A46179990476D1CB8F10001A8F10108B1
:1063F000F4DC5B462146179A0598ABE62D000000B9
:106400002B000000200000002DE9F041044600258B
:106410001E461746880404D405E039462020B047BC
:106420006D1C641EF9D52846BDE8F0812DE9F041C8
:10643000044600251E469046C80301D5302700E0DB
:106440002027880404D505E041463846B0476D1C36
:10645000641EF9D52846BDE8F081000070B50546F8
:106460003C480078B0B100240FE000203A4941F8E0
:10647000240005F1140050F82400384941F82400A4
:10648000002037490880601CC4B2032CEDDB0020DB
:1064900030490870002422E0304850F8241005F1FB
:1064A000140050F824000E1A301E01DB014600E0F3
:1064B000414232290BDA284850F8241005F108002F
:1064C00050F824000844244941F8240005E0012044
:1064D00020490870002022490880601CC4B2032CA7
:1064E000DADB1F480088401C80B21D490880FF2865
:1064F0002FDD002420E0184850F8240018490988AE
:1065000090FBF1F001B205F1200020F81410022CEC
:1065100009D130F8140013490988401A01B205F175
:10652000200020F8141005F1200030F814100E4857
:1065300020F81410601CC4B2032CDCDB002085F8AA
:106540002C0001200349087000200849087000F061
:106550006BFF70BD6A000020780E0020840E0020C2
:10656000680000205C00002064040020250000205A
:1065700010B560212748FDF700FE2748254908602F
:106580002648486008688047002414E0C4EBC40132
:10659000234A02EB810040F2E242224900F018FF58
:1065A00004EB4401204A02EB8100204AF02103F071
:1065B000DDFD601CC4B2032CE8DB4FF480501C49A5
:1065C00008801C481C4908601C4800681C49884217
:1065D00016D1002411E01948001D30F814100D48A0
:1065E000203020F8141015480A3030F814100948EB
:1065F000263020F81410601CC4B2032CEBDB08E03A
:106600000F480E4908600120024981F82D0081F8E9
:106610002C0010BD880D00201193000899930008EC
:106620000C0E00200000F041E80D00200AD7A33A2C
:106630005C000020797D8B3A60000020600400201F
:10664000A5A55A5A70B53A4800F1140142680830BD
:106650009047002869D0042235490831084600F0E7
:1066600068FB042232491431084600F062FB3048CE
:1066700090F82D0010B12E4801F0C6FB2C4890F880
:106680002C0010B12A48FFF7E9FE002418E0284842
:10669000083050F82410183030F91400091A244832
:1066A000303040F824101C3850F82410123030F9E3
:1066B0001400091A1E483C3040F82410601CC4B273
:1066C000032CE4DB00242CE01949303151F824007C
:1066D000FDF798FE0646C4EBC401164A02EB8100A2
:1066E000314600F09FFD0546FDF7A7FE10494831F1
:1066F00041F824000C3951F82400FDF783FE0646CA
:1067000004EB44010C4A02EB8100314603F010FD1A
:106710000546FDF792FE0649543141F82400601CFD
:10672000C4B2032CD0DB012070BD0020FCE70000C8
:10673000880D00200C0E0020E80D00202DE9FC5FE4
:10674000054600212846FDF7CBFE01D2284601E090
:1067500085F00040064631461848FDF771FD18499E
:106760000090FDF715FD83463146FDF769FD824631
:106770001449FDF70DFD81463146FDF761FD1249D3
:106780000190FDF705FD074631464FF07E50FDF7BD
:1067900051FD814604F0EDFA80463946FDF750FD83
:1067A000044600212846FDF791FE05D22146074800
:1067B000FDF740FDBDE8FC9F2046FBE7306E99BC2D
:1067C0002716983D843459BEA40DC93FDB0F4940BC
:1067D0002DE9FC5F00F0D0FC00287DD087480078D0
:1067E000C0F3C00048B985480078C0F3400030B914
:1067F00082480078C0F3800008B9022600E0012634
:10680000002530E07E480088401C7E49088008460C
:106810000088072804D10020088001207A490880D8
:106820007A48006800F052FA7949754A128841F8AE
:10683000220008467249098850F821007549096804
:1068400008447449086072486E49098850F821006C
:1068500070490968081A6F4908606A4800886849E1
:106860000880681CC5B2B542CCDB6748008860B1BF
:1068700068480068FDF7C6FD81466749FDF712FDCF
:106880008046FDF7DAFD044601E06048046863488D
:10689000008800280BDC59480078C0F3400000282D
:1068A0004AD156480078C0F38000002844D15B48A4
:1068B0000088322804D104EB840040005849086065
:1068C000574800680A2190FBF1F055490968081AF9
:1068D00053490860084600E08EE0006820440860E4
:1068E00008460068FDF78EFD4E490090FDF7DAFC82
:1068F0004D490190FDF7D6FC83464C4903F008F959
:1069000082464FF07E51FDF798FC81464849FDF7DD
:1069100097FC8046FDF791FD4649086000204649F6
:106920000860464908603D480088002804DD3B486F
:106930000088401E394908802046FDF763FD3A492A
:106940000190FDF7AFFC8346384903F0E1F8824639
:106950004FF07E51FDF771FC81463549FDF770FC23
:106960008046FDF76AFD0746324800683F1A384600
:10697000FDF748FD83463249FDF762FC8146314808
:106980000068FDF73FFD83462F49FDF759FC82461D
:106990004946FDF7FDFB8046FDF74FFD294908609C
:1069A00009682A4A1268891AC800FDF72BFD019070
:1069B00027480068FDF726FD83462649FDF740FC81
:1069C00082464FF08141FDF76DFC81460199FDF74C
:1069D000DFFB8046FDF731FD1D49086040F6B83207
:1069E0001D491B48008800B200F052FD184908609C
:1069F0001448006815490860BDE8FC9F08020020A3
:106A0000D8010020DA010020DC010020A8000020CD
:106A1000280F0020E00100200000C04042010020BB
:106A2000E40100200000204180E6C547B1DC423E81
:106A3000041B294C44010020600100206401002057
:106A40009A99993E480100203333333F4C0100208E
:106A5000500100200000404030F8FFFF10B5FFF764
:106A6000B7FE054800780A2804DB002002490870B8
:106A700000F01EFF10BD0000740100202DE9F0475A
:106A80007D48007800F0010000287AD07A4800782C
:106A900020F0010078490870002048707748847819
:106AA00005784678C77890F8048090F80590A000A3
:106AB0004FF47A72002100F0EBFC0446803D803EEA
:106AC000803FA8F13F08A9F13F091C21284600F0AA
:106AD0001FF905B21C21304600F01AF906B2252133
:106AE000384600F015F907B240F28A2084421CDDD6
:106AF0006148007820F0080008305F490870A4F26F
:106B00008A20800000B25E4908800846B0F9000083
:106B1000B0F5FA6F02DD4FF4FA600880564800784D
:106B200020F00400544908701CE0B4F5BB7F16DC6B
:106B30005148007820F0080008304F490870A4F24E
:106B40007710800000B24E4908800846B0F9000076
:106B500010F5FA6F06DA4FF63000088002E00020E8
:106B60004749088044480078C0F30010D0B116F1BE
:106B7000320F14DC322D12DB42480078322801DA61
:106B800011E077E03C48007820F010003A490870A6
:106B900001203D4981F82D0081F82C0002E0002001
:106BA0003849087000BF3548007A00F00100E8B1AC
:106BB00036480078E8B10020344908702E48007843
:106BC000C0F34000A8B92C48007820F00200801CD7
:106BD000294908700846007820F00400001D08705C
:106BE0000846007820F01000087002E001202749D4
:106BF00008702248007A00F0020050B11E48007868
:106C000020F002001C4908700846007820F00400BB
:106C100008704FF4FA62511004F57A7000B200F077
:106C200037FC1B49C8804FF4FA725142284600F0E5
:106C30002FFC174908804FF4FA725142304600F099
:106C400027FC13494880A7EB870108B24FF4FA727A
:106C5000514200F01DFC0E49888008EB880040007E
:106C600000B20C49088009EB8900400000B248805E
:106C700000208880BDE8F08708020020440F002033
:106C800004020020F4010020880D002006020020EC
:106C9000F6010020FE01002070B504460D46FDF708
:106CA000DDFF3420FDF736FF2846FDF739FF21468A
:106CB0002846FDF78DFF042803D0FDF771FF012062
:106CC00070BDFDF76DFF0020FAE7000070B50446C7
:106CD0000C480088401C85B2052D03D100250120F9
:106CE0000949087009480749098840F821400548C2
:106CF00005800548007818B1044803F04FFA70BDCC
:106D00002046FCE7D4010020D6010020140F00200B
:106D1000021E01DB134600E053428B4201DA0020E1
:106D200006E0002801DD401A02E0002800DA0844ED
:106D3000704770B50C46154621686268A368092D36
:106D400006D2DFE805F005060A0F151A20252B00EC
:106D500000BF01604260836027E002604E424660EF
:106D6000836022E04E4206605642466083601CE02B
:106D7000564206604160836017E04E420660426002
:106D80005E42866011E0026041605E4286600CE017
:106D90000160564246605E42866006E056420660EA
:106DA0004E4246605E42866000BF00BF70BD00007C
:106DB0002DE9F04F87B006460C4600212046FDF72E
:106DC0008FFB01D2204601E084F0004007460021FD
:106DD0003046FDF785FB01D2304601E086F00040E9
:106DE000804641463846FDF77BFB01D2384600E03D
:106DF0004046054600212846FDF768FB0DD0414678
:106E00003846FDF763FB01D2384600E04046814634
:106E10002946FDF747FA054600E0002529462B489C
:106E2000FDF70EFA83462A49FDF7B2F98246294654
:106E3000FDF706FA81464FF07E51FDF7A9F9294684
:106E400006902448FDF7FCF923490190FDF7F2F97B
:106E500029460290FDF7F4F920490390FDF7EAF97D
:106E600029460490FDF7ECF983461D49FDF7E2F948
:106E700082462946FDF7E4F981461A49FDF7DAF919
:106E800080F0004005900699FDF70CFA054639465A
:106E90004046FDF725FB04D229461348FDF7CAF901
:106EA000054600212046FDF711FB04D229460F4874
:106EB000FDF7C0F9054600213046FDF707FB01D27A
:106EC00085F00045284607B0BDE8F08F99FB243FC8
:106ED00069A2163E39094E3DE3B59E3E88FA163E3C
:106EE00045FE7F3FA7DFA834DB0FC93FDB0F4940DA
:106EF0002DE9F0474FF0684202EB40030C4605468F
:106F0000B3F1654F3CBF02EB4102B2F1654F7CD259
:106F1000C0F3C753C1F3C7529A1A1B2A06DD10F0FB
:106F2000004F14BF76487748BDE8F08712F11A0F7A
:106F300017DA11F0004F06D010F0004F0CBF724866
:106F40007248BDE8F08721462846FDF7ABF90446B4
:106F5000FEF734FD042808BFFEF756FD2046BDE8C5
:106F6000F0874200B2EB410F25D910F0004F19BF56
:106F7000674F684E684F694E224685F000441546BB
:106F80000A4680F0004110460A1A5200B2F1807F92
:106F900040D248406249DFF88CA110F0004F18D071
:106FA0004FF03F483846FDF745F907465146304611
:106FB000FDF740F917E011F0004F04BF00263746F7
:106FC000E2D010F0004F19BF574F584E584F594E4E
:106FD000DAE74FF07C583846FDF7DAF807465146B5
:106FE0003046FDF7D5F8064641462846FDF728F914
:106FF0002146FDF7CDF8824621464046FDF720F9AF
:107000002946FDF71AF9514600E037E0FDF74AF945
:10701000044604E021462846FDF744F904460146AB
:10702000FDF70EF980464449FDF70AF94349FDF79B
:10703000AFF84146FDF704F94149FDF7A9F841468B
:10704000FDF7FEF83F49FDF7A3F84146FDF7F8F8D4
:107050003D49FDF79DF8054641462046FDF7F0F80D
:107060002946FDF7EDF83146FDF792F82146FDF788
:107070008FF83946BDE8F047FDF78AB84FF07F42F8
:10708000B2EB400F28BFB2EB410F03D2BDE8F0478F
:10709000FEF7AFBC40EA01035B0008BF44F0FF41CC
:1070A0000AD0B2EB400F08BFB2EB410F06D125F07A
:1070B000804024F0804105460C4629E7B2EB400FA2
:1070C00012BF5FEA410245F0FF4004F000413FF487
:1070D0001FAF4A0092EA40033FF51AAF002AACBF47
:1070E0004FF09F464FF03E563146FDF7A9F8054652
:1070F00031462046FDF7A4F804462846214607E716
:10710000DB0FC9BFDB0FC93FDB0F4940DB0F49C0B5
:107110000000C9BF22AAFDB90000C93F22AAFD395B
:107120000060ED3EC30ACE37000049C022AA7DBAF6
:107130000000494022AA7D3A2DAD65BD8FB8D53DEE
:107140000FB511BE61C84C3EA8AAAABE10B507482B
:1071500003F018FC18B101200549087002E0002076
:107160000349087000200349086010BDC00E0020CC
:10717000B0000020A800002010B5002422480078AC
:10718000012801D0002010BD20480078204909784E
:10719000884236DB00201D4908701E48007810B177
:1071A000012822D10DE01C49886880471A49C86827
:1071B00080470120174908701748807814490870E3
:1071C0001EE01549086980471349486880471248FE
:1071D000124942691248904700200E4908700E4833
:1071E00000780B49087001240AE00B494868804781
:1071F000002008490870084800780549087000BF59
:1072000000BF2046BFE70000B0000020A40000201F
:10721000B1000020B2000020C00E0020AC00002011
:10722000A80000202DE9F04704460E4631462068AC
:10723000FDF706F807466169FCF7AAFF05462946EF
:10724000E068FCF7FDFF804631466068FCF7F8FF18
:1072500081464146FCF7EEFF0746A169FCF798FF1F
:10726000606129462069FCF7EBFF07463146A068BC
:10727000FCF7E6FF80463946FCF7DCFFA0612846B4
:10728000BDE8F0872DE9F04F8BB0044689461746DC
:107290009846DDF850A03846FDF7BDF84A49019000
:1072A000FCF7CEFF014602904FF07E50FCF7FAFF4C
:1072B000834649464548FCF7C3FF59460290FCF710
:1072C000F1FF0A900A9803F075F909900A9800F006
:1072D000F9F8089041464FF08040FCF7B1FF0146B5
:1072E00002900998FCF7DEFF0790BAF1000F03D077
:1072F000BAF1010F2FD000BF4FF07E500899FCF774
:1073000099FF4FF080410290FCF7CCFF05464FF00B
:107310007E500899FCF78EFF06904FF07E5008993A
:10732000FCF788FF4FF080410290FCF7BBFF064658
:107330004FF07E500799FCF72BFF05904FF040402F
:107340000899FCF77DFF04904FF07E500799FCF7F9
:1073500071FF039017E04FF07E55E8010899FCF7A4
:107360006FFF06902E4628460799FCF711FF0590FF
:10737000E8010899FCF764FF049028460799FCF798
:1073800059FF039000BF00BF28460599FCF78AFF0C
:107390002060DDE90510FCF785FF60603046059947
:1073A000FCF780FFA060DDE90401FCF77BFFE060F3
:1073B00005990398FCF776FF20610020A0616061C9
:1073C0000BB0BDE8F08F0000BD378635DB0FC9403C
:1073D0002DE9F84304460D4616464FF0804003F071
:1073E000C8FC804641464FF07E50FCF75BFF0746E5
:1073F00000203B463246294600902046FFF742FFD8
:10740000BDE8F88300B5064B002205E00549501899
:10741000FDF714FC01C3121D102AF7D300BD0000B4
:10742000600400201038000870B5154D0021154883
:10743000FEF7E3F9FDF712FC3420FDF76BFB124871
:10744000FDF76EFB11491048FDF7C2FB00240DE06B
:10745000A20855F822100C4A1032A018FDF7B8FB0C
:10746000042802D0FDF79CFB02E0241D102CEFD372
:1074700000BFFDF795FB01210248FEF7BEF970BD84
:1074800060040020003801400038000878563412AB
:10749000884200DA0846904200DD1046704770B519
:1074A00006460D46144629463046FDF70FF800D231
:1074B0002E4621463046FDF713F800D226463046C8
:1074C00070BD00002DE9F843044602464F48694666
:1074D000B0EB420F09D94FF0E640B0EB420F94BF3A
:1074E00000204FF0FF30009030E0494B22F0004088
:1074F000834271D947492046FCF7A2FEFDF7B3F855
:107500008046FCF79AFF00F0030000904249404695
:10751000FCF796FE054641494046FCF791FE0646BB
:107520003F494046FCF78CFE07463E494046FCF783
:1075300087FE2146FCF781FE3946FCF77BFE31468B
:10754000FCF778FE2946FCF775FE04462546009CAC
:10755000002C45DB294614F0010F08461CD0FCF72F
:107560006FFE06463049FCF76BFE3049FCF765FEBE
:107570003146FCF765FE2E49FCF70AFE3146FCF762
:107580005FFE2946FCF75CFE2946FCF701FE14F07D
:10759000020F1CD0BDE8F883FCF752FE05462549D2
:1075A000FCF74EFE2449FCF7F3FD2946FCF748FEA4
:1075B0002249FCF7EDFD2946FCF742FE4FF07E51D3
:1075C000FCF7E6FD14F0020F08BFBDE8F88380F079
:1075D0000040BDE8F883FFE71046FEF71BFAB4E76A
:1075E0006800B0F17F4F3CBF4FF07E50BDE8F8839C
:1075F00007D14FF00100FEF7D1FABDE8F843FEF7DE
:10760000FAB92846BDE8F843FEF7F0B9B61F927EF6
:10761000490E494683F9223F1A61342C0020A233D7
:1076200000A0FD390000C93F336D4C39DA82083CB7
:10763000A0AA2ABEB93AB2BACA9F2A3DDDFFFFBE50
:1076400010B51C210D48FCF798FD4FF4E1300B49B3
:1076500088610B4808604FF4857008810948C8604C
:107660008021064881828069074988600348086054
:107670000C30486000F03EFC10BD00001C020020F1
:107680003802002042030020700D002001780E4ACD
:1076900011704178517081789170C178D170017901
:1076A00011714179517181799171C179D171017AE9
:1076B0001172417A51720549097821F00101491C82
:1076C000024A117070470000440F00200802002099
:1076D0000021044A118000BF024909888142FBDB76
:1076E000704700000400002070B500250CE00A205F
:1076F000FFF7EEFF0D21EC2003F0AAF80446102C52
:1077000001D1012070BD6D1C052DF0DB0020F9E7D3
:107710002DE9F04701F052FD044610490988611A2D
:1077200088B2FCF77DFE07460D4A0E4BFCF7F8FDCC
:107730000546FCF7AEFE81460B494846FCF7D0FEF5
:107740000AD806480480FEF77DFF00F0AFFE4846E9
:1077500001F05AFF01F048FDBDE8F0870A02002061
:107760008DEDB5A0F7C6B03E0AD7A33A70B5044672
:107770000D46E0B202F086FE03F014FC204670BD18
:107780002DE9F04F85B007460D4616461C464FF0D2
:107790007C513846FCF754FD8246FFF793FE804645
:1077A0004FF07C512846FCF74BFD8246FFF78AFEDE
:1077B00081464FF07C513046FCF742FD8246FFF790
:1077C00081FE04904FF07C513846FCF739FD82462B
:1077D00002F0F0FE03904FF07C512846FCF730FD9C
:1077E000824602F0E7FE02904FF07C513046FCF7F3
:1077F00027FD824602F0DEFE0190DDE90210FCF773
:107800001FFD00900199FCF71BFD8246494640464A
:10781000FCF716FD00900499FCF712FD83465146D3
:10782000FCF7B6FC206040460299FCF709FD009089
:107830000199FCF705FD824649460398FCF700FDD7
:1078400000900499FCF7FCFC83465146FCF7F2FCDF
:10785000606049460398FCF7F3FC00900199FCF73F
:10786000EFFC824640460299FCF7EAFC009004993E
:10787000FCF7E6FC83465146FCF78AFCA060DDE994
:107880000210FCF7DDFC00900499FCF7D9FC82465D
:1078900049464046FCF7D4FC00900199FCF7D0FC27
:1078A00083465146FCF7C6FCE06005B0BDE8F08FAA
:1078B0002DE9F04F87B0FE480690FE4AB2F902B0BB
:1078C000BBF1000F01DB5A4601E0CBF1000211B21F
:1078D000F84AB2F90090B9F1000F01DB4A4601E025
:1078E000C9F1000210B201F061FCF349088001F017
:1078F00065FC0646F1490988711A88B2FCF790FDCB
:10790000EF4AF04BCDE90001FCF70AFDCDE9020199
:10791000FCF7BFFD0746E9480660002463E0EA483B
:10792000008810B90120E8490880022C09D1E748F5
:107930000068E74941F82400E6480068E64941F854
:107940002400E64850F82400DF49098890FBF1F94B
:107950004846FCF757FD8246D5495046FCF770FC77
:107960008146DF4801684846FCF76AFC8046D849F2
:1079700051F82400DA490968FCF762FC4FF07C51A9
:1079800003904046FCF75CFC0290D54801680298E1
:10799000FCF756FC83460399FCF7FAFB8146CE4878
:1079A00050F824104846FCF7F3FBCB4941F824007B
:1079B000C74951F824004146FCF7EAFBC44941F8A5
:1079C00024000020C54941F82400022C09D1C248F6
:1079D00050F82400BF490860BD4850F82400BB4956
:1079E0000860601CC4B2032C99DB0020B6490880F3
:1079F000BB490860BB480068FCF704FDBA49039026
:107A0000FCF71EFC8146B949B2480068FCF718FC37
:107A100083464946FCF7BCFBAE490860084600684F
:107A2000FCF70BFDB2490860B2480068FCF7EAFCBD
:107A30008346B149FCF704FC8146B049A34800687D
:107A4000FCF7FEFB49460390FCF7A2FB9F49086048
:107A5000AB4AAC499D480068FFF721FD9B4908608F
:107A6000A9480078C0F34000C0B9A748007820F0CA
:107A70000800A54908709E480068A44908600020D5
:107A8000A3490860A34908609049086090490860CC
:107A90004860886090490860486088608B4800684A
:107AA000FCF7CBFC00B204908348B0F90000B0F5BD
:107AB000FA5F7DDA94480078C0F3C00070BB964846
:107AC0009649086096489749086097489749086022
:107AD0009748984908608D490988854A1288891A0B
:107AE00008B241F288325142FFF7D2FC05462846DF
:107AF000FCF788FC0390894801680398FCF7A0FB19
:107B00008346FCF79AFC0FFA80F940F6B8325142EE
:107B10004846FFF7BDFC884908808AE04FF07C505A
:107B200080490860814908604FF07E5081490860B3
:107B30008248008800285CD17F48B0F90000B0F589
:107B4000487F04DD4FF448707B49088056E07A484E
:107B5000B0F9000010F5487F04DA4FF6E0407649AE
:107B600008804BE07449B1F90000002801DB0146B0
:107B700000E04142C82903DA00206F4908803DE057
:107B80006D48B0F900006D49B1F90010884214DD6C
:107B9000694800884B3800B2674908800846B0F948
:107BA00000006649B1F90010884206DA634800E037
:107BB000FDE0B0F90000604908805F48B0F90000BE
:107BC0005E49B1F90010884218DA5B4800884B30F2
:107BD00000B2594908800846B0F900005749B1F988
:107BE000001088420ADD5548B0F90000524908806B
:107BF00004E05248B0F900004F4908804E48008820
:107C0000B8B938480068FCF7FDFB324908600846FF
:107C10000068FCF712FC3D4908602E480068FCF73C
:107C20000CFC334908603848007820F008003649D9
:107C300008704148B0F9001004980D1A2846FCF766
:107C4000E1FB0390374801680398FCF7F9FA834693
:107C5000FCF7F3FB0FFA80F94FF4FA7251424846F1
:107C6000FFF716FC2B4908602846FCF7CBFB039076
:107C70002E4801680398FCF7E3FA83463946FCF77F
:107C8000DFFA8146224801684846FCF781FA20491C
:107C900008602B491E480068FCF722FC02D22848E5
:107CA0001B49086027491A480068FCF70FFC4BE0A5
:107CB0009A3A19408000002040010020E80100208D
:107CC0008DEDB5A0F7C6B03E540100206001002044
:107CD000FC0E002064010020080F0020F00E0020A0
:107CE0005801002048010020305C0F3D3D0A773FDD
:107CF0006801002050010020F4FD543C08AC7C3F9A
:107D000000800945008009C5080200206C010020A0
:107D1000EC010020700100203333333F7801002054
:107D20009A99993F7C0100206666E63F8001002019
:107D30000000404084010020760100200402002061
:107D400000009643000096C302D2264826490860E8
:107D500026480068FCF756FB8346234801685846CE
:107D6000FCF716FA8146FCF768FB204908602048BA
:107D70000068281A05901E4805600598FCF742FB2C
:107D800003901C4801680398FCF75AFA8346FCF7F5
:107D900054FB0FFA80F94FF4C87251424846FFF77E
:107DA00077FB1249096808441049086016E0124838
:107DB000007820F00200104908700846007820F092
:107DC000080008700D4800680D4908600020064949
:107DD0000860064908600B490860002507B0BDE847
:107DE000F08F0000000096C3EC010020700100201D
:107DF000F00100208401002008020020680100201A
:107E00006C0100206001002070B505463448007800
:107E1000B0B100240FE00020324941F8240005F100
:107E2000140050F82400304941F8240000202F4964
:107E30000880601CC4B2032CEDDB002028490870C8
:107E4000002422E0284850F8241005F1140050F8CE
:107E500024000E1A301E01DB014600E041423229A7
:107E60000BDA204850F8241005F1140050F82400D3
:107E700008441C4941F8240005E001201849087015
:107E800000201A490880601CC4B2032CDADB1748B2
:107E90000088401C80B215490880FF281EDD0024A0
:107EA00012E0104850F824001049098890FBF1F0C6
:107EB00001B205F1260020F8141030F814100C4817
:107EC00020F81410601CC4B2032CEADB002085F8F3
:107ED0002D00012002490870FFF7A6FA70BD0000CE
:107EE00066000020600E00206C0E00206400002060
:107EF0006A04002000B587B001210520FDF72EF8A7
:107F000001218803FDF72AF818208DF81B004FF493
:107F10000070ADF8180003208DF81A0006A91E485D
:107F2000FCF7BBFE48208DF81B004FF48060ADF8D5
:107F3000180006A91848FCF7B0FE1848806802909F
:107F40000020ADF80C00ADF80E00ADF81000ADF853
:107F500014000C20ADF8120002A91148FDF7A8FC8E
:107F60004FF4E060FCF7E0FF25208DF804000020CE
:107F70008DF8060001208DF8070001A8FCF79CFF92
:107F8000012240F225510648FDF76DFC012104480D
:107F9000FDF733FC07B000BD00080140700D002064
:107FA0000038014008B501210820FCF7D7FF082060
:107FB000ADF8000010208DF8030003208DF80200BA
:107FC00069461448FCF769FE01210820FCF7C6FF4A
:107FD0004FF40050ADF8000069460E48FCF75DFE16
:107FE00001210820FCF7BAFF4FF48040ADF80000F3
:107FF00069460848FCF751FE01210820FCF7AEFF56
:108000004FF48070ADF8000069460248FCF745FE69
:1080100008BD0000000C014000B587B00121092017
:10802000FCF79CFF01218804FCF788FF18208DF8DD
:108030001B004FF48060ADF8180003208DF81A0083
:1080400006A91E48FCF729FE48208DF81B004FF4B6
:108050000060ADF8180006A91848FCF71EFE184885
:10806000806802900020ADF80C00ADF80E00ADF86D
:108070001000ADF814000C20ADF8120002A9114850
:10808000FDF716FC4FF4E060FCF74EFF27208DF85B
:10809000040000208DF8060001208DF8070001A8DB
:1080A000FCF70AFF012240F225510648FDF7DBFBF1
:1080B00001210448FDF7A1FB07B000BD000C014001
:1080C000700D00200048004008B501210820FCF791
:1080D00045FF4020ADF8000010208DF8030003207C
:1080E0008DF8020069460748FCF7D7FD01210820FA
:1080F000FCF734FF8020ADF8000069460148FCF72A
:10810000CCFD08BD000C01400548006820F070401F
:10811000034908600846006840F000400860704766
:10812000000C01400548006820F0704003490860D9
:108130000846006840F0805008607047000C01401D
:1081400000B589B001210220FCF7F8FE01211D20B5
:10815000FCF704FFC020ADF8200018208DF82300A4
:1081600003208DF8220008A93048FCF796FD032073
:10817000ADF8200008A92E48FCF78FFD40F2E7304B
:10818000ADF818000320ADF814000020ADF81A0077
:10819000ADF8160005A92748FDF710FA6020ADF8E4
:1081A00004000120ADF806000020ADF80A00ADF88B
:1081B0000C0001A91F48FDF79DF808211D48FDF797
:1081C000E5F80120ADF806000020ADF80A0001A98D
:1081D0001848FDF7E5F808211648FDF733F90120A6
:1081E000ADF806000020ADF80A0001A91148FDF71E
:1081F00037F908210F48FDF783F90120ADF8060093
:108200000020ADF80A0001A90A48FDF783F908210A
:108210000848FDF7BDF901210648FDF743F80121A3
:108220000448FDF74EF809B000BD00000008014009
:10823000000C0140000400400EB501210420FCF7B1
:108240007DFE4FF6FF70ADF804003F20ADF8000052
:108250000020ADF80600ADF8020069460348FDF7BE
:10826000ADF901210148FDF72CF80EBD00080040D2
:108270001FB504461748046001210846FCF75EFE5E
:108280001C208DF80C0000208DF80D0001208DF8C9
:108290000E008DF80F0003A8FCF70EFE4FF47A7065
:1082A000ADF804003F20ADF800000020ADF8060056
:1082B000ADF8020069464FF08040FDF77FF90122DA
:1082C00011469007FDF70CF801218807FCF7F9FF2C
:1082D0001FBD00003C00002010B504462078722825
:1082E0003BD16078652838D1A078622835D1E07814
:1082F0006F2832D120796F282FD1607974282CD142
:108300006420FFF7E5F902F063F86420FFF7E0F975
:1083100002F05EF86420FFF7DBF910A0FDF73EFBEA
:108320006420FFF7D5F900211448FDF766FA02F042
:108330009BFD13494FF0FF30FEF7AEFC00BF114824
:10834000006800F4E06010490843001D0D49086012
:10835000BFF34F8F00BF00BFFEE710BD737973748A
:10836000656D726573657420746F20626F6F746CD5
:108370006F61646572210D0A000000000038014041
:10838000003800080CED00E00000FA0510B50948BF
:10839000FCF754FC0849884203D006490648FEF71A
:1083A0007BFC4FF480710548FBF7E7FEFFF72AF8E6
:1083B00010BD000000380008785634127004002008
:1083C00030B593B00446002201A9684602F054FD7E
:1083D0000CAB0022DDE90001FFF7D2F90CA903A8DC
:1083E00000F0FAF82C49C96C4842FCF70BF81090E1
:1083F0002949886CFCF706F811902749086DFCF7AD
:1084000001F8129003A910A800F0F6FB00211098C3
:10841000FBF710FF109000211198FBF70BFF119054
:108420001E48B0F90000FBF7EDFF05461299FBF777
:1084300004FF12901098FCF700F805460021FEF7A3
:1084400067FC174909680844154908601198FBF74B
:10845000F4FF05460021FEF75BFC1149496808441A
:108460000F4948601298FBF7E8FF05460021FEF728
:108470004FFC0B498968084409498860094801682C
:108480002046FBF785FE0749086007480088401C26
:108490000549088013B030BD880D00205C00002025
:1084A000F00E002058010020540100202DE9F04F6B
:1084B00089B00020079000F081FE81463F4909887D
:1084C000A9EB010188B2FBF7ABFF07463C4A3D4BE5
:1084D000FBF726FF0546FBF7DCFF08903748A0F8BE
:1084E000009039490898FBF7FBFF02D209B0BDE8BC
:1084F000F08F002418E0354951F82410C1EBC10277
:10850000334951F824105018C11700EB5171C910AC
:108510002E4A42F824102E480C3050F8240004A9AA
:1085200041F82400601CC4B2032CE4DB00F01CF909
:1085300008B10120079025498868FBF763FF0546CD
:1085400022494868FBF75EFF064620490868FBF7AA
:1085500059FF07460698FBF755FF03901D48016831
:108560000398FBF76DFE80460598FBF74BFF0390E1
:10857000184801680398FBF763FE82460498FBF7EE
:1085800041FF0390134801680398FBF759FE8346A7
:108590000798434652465946CDE901760395009027
:1085A000089800F003F900F077FB0898FFF708FF40
:1085B0000898FFF705FF00BF98E70000A000002023
:1085C0008DEDB5A0F7C6B03ECDCC4C3EB40E00202C
:1085D000D00D0020600000202DE9F04F87B0054647
:1085E0000C4661680846FBF72BFE0690A16808461A
:1085F000FBF726FE0590E1680846FBF721FE049094
:10860000D4E90001FBF71CFE0646A1682068FBF7D1
:1086100017FE0746E1682068FBF712FE8046D4E9A2
:108620000101FBF70DFE0390E1686068FBF708FEAF
:108630000290D4E90201FBF703FE01904FF0804065
:108640000499FBF7FDFD82464FF080400599FBF74A
:10865000F7FD83464FF07E51FBF7EFFD8146514613
:10866000FBF7E8FD286088F0004A50460399FBF7C5
:108670008FFD81464FF08041FBF7E2FD686087F097
:10868000004A50460299FBF7D8FD81464FF08041E1
:10869000FBF7D6FDA86088F0004A50460399FBF727
:1086A000CCFD81464FF08041FBF7CAFDE8604FF0FA
:1086B00080400499FBF7C4FD82464FF08040069944
:1086C000FBF7BEFD83464FF07E51FBF7B6FD8146BA
:1086D0005146FBF7AFFD286186F0004A50460199EC
:1086E000FBF756FD81464FF08041FBF7A9FD68611D
:1086F00087F0004A50460299FBF74AFD81464FF049
:108700008041FBF79DFDA86186F0004A5046019923
:10871000FBF793FD81464FF08041FBF791FDE86147
:108720004FF080400599FBF78BFD82464FF080406B
:108730000699FBF785FD83464FF07E51FBF77DFDE3
:1087400081465146FBF776FD286207B0BDE8F08F01
:1087500010B500F003FB08B1024810BD4FF07E5089
:10876000FBE70000000020410021002208E00D4846
:1087700050F822000B4B53F8223000FB0311521C1F
:10878000032AF4DB64204843074BB3F900305B4312
:1087900090FBF3F1512903DD792901DA01207047BB
:1087A0000020FCE7B40E00205C0000202DE9F04F13
:1087B00093B00746884614461D46DDE91EABDDF83A
:1087C00074900020119010900F9029462846FBF7D6
:1087D00037FD214605902046FBF732FD41460390C8
:1087E0004046FBF72DFD02900399FBF7D1FC049066
:1087F0000599FBF7CDFC069002F0BBFA07905946AD
:108800005846FBF71DFD514606905046FBF718FDF4
:10881000494604904846FBF713FD03900499FBF783
:10882000B7FC05900699FBF7B3FC12901C98002842
:1088300053D0E6491298FBF753FE4ED2129800F03F
:10884000C9FA129048461299FBF7FAFC8146504645
:108850001299FBF7F5FC824658461299FBF7F0FC9B
:108860008346DB48C1695846FBF7EAFC0590D848C7
:10887000016A5046FBF7E4FC04900599FBF7DAFC2B
:1088800006901199FBF784FC1190D148016A484683
:10889000FBF7D6FC0590CE4881695846FBF7D0FC23
:1088A00004900599FBF7C6FC06901099FBF770FC45
:1088B0001090C74881695046FBF7C2FC0590C44838
:1088C000C1694846FBF7BCFC04900599FBF7B2FC74
:1088D00006900F99FBF75CFC0F90BE490968086889
:1088E0000021FBF7FDFD39D2BB490798FBF7EEFDF0
:1088F0003BD2B84800680068069011990698FBF7CB
:108900009FFC39460490FBF79BFC0590B348016837
:108910000598FBF73DFCB149086010990698FBF7F4
:108920008FFC39460490FBF78BFC0590AC4801683E
:108930000598FBF72DFCAA4908600F990698FBF7EC
:108940007FFC39460490FBF77BFC0590A548016845
:108950000598FBF71DFCA349086006E000209F492D
:1089600008609F4908609F490860FFF7F1FE069084
:108970009848006841680698FBF762FC0C901199D2
:108980000C98FBF75DFC0590944801680598FBF78F
:10899000FFFB41460690FBF7FBFB804610990C98C5
:1089A000FBF74EFC05908E4801680598FBF7F0FB3D
:1089B00021460690FBF7ECFB04460F990C98FBF759
:1089C0003FFC0590874801680598FBF7E1FB2946C5
:1089D0000690FBF7DDFB05464FF07C513846FBF770
:1089E0002FFC41460690FBF72BFC80464FF07C5154
:1089F0003846FBF725FC21460690FBF721FC044690
:108A00004FF07C513846FBF71BFC29460690FBF7DC
:108A100017FC0546744800680E9074480668744850
:108A200000680D90294673480068FBF709FC214651
:108A300005900D98FBF704FC039086F0004041463A
:108A40000190FBF7FDFB02900399FBF7F3FB049009
:108A50000599FBF7EFFB0690634801680698FBF762
:108A600097FB61490860214662480068FBF7E8FB14
:108A7000294605900D98FBF7E3FB414603900E98BD
:108A8000FBF7DEFB02900399FBF782FB049005994C
:108A9000FBF7D0FB0690554801680698FBF778FB7A
:108AA00052490860414653480068FBF7C9FB294614
:108AB00005903046FBF7C4FB214603900E98FBF768
:108AC000BFFB02900399FBF7B5FB04900599FBF7F8
:108AD0005FFB0690464801680698FBF759FB44493E
:108AE000086041460D98FBF7ABFB214605903046E8
:108AF000FBF7A6FB294603900E98FBF7A1FB02901B
:108B00000399FBF745FB04900599FBF793FB06904F
:108B1000384801680698FBF73BFB36490860084671
:108B200001680068FBF78CFB05903148016800681C
:108B3000FBF786FB03902D4801680068FBF780FB7C
:108B40000190294801680068FBF77AFB00900199C1
:108B5000FBF71EFB02900399FBF71AFB04900599A3
:108B6000FBF716FB069000F035F912901E4812999B
:108B70000068FBF765FB1C4908601C4812990068F7
:108B8000FBF75EFB19490860194812990068FBF76A
:108B900057FB17490860174812990068FBF750FB0C
:108BA000144908601048006808901048006809904F
:108BB0000F4800680A90084600680B9008A904480E
:108BC000FFF70AFD13B0BDE8F08F00000AD7233C81
:108BD000900E002090000020C2B8B23E9400002009
:108BE000980000209C0000207000002074000020ED
:108BF000780000207C0000202DE9F84F04460D4647
:108C0000A168A868FBF71CFB824661686868FBF7EF
:108C100017FB009021682868FBF712FB8346009938
:108C2000FBF7B6FA81465146FBF7B2FA0646A16851
:108C30006869FBF705FB009061682869FBF700FB9A
:108C400082462168E868FBF7FBFA83465146FBF74A
:108C50009FFA81460099FBF79BFA0746A168286AAC
:108C6000FBF7EEFA00906168E869FBF7E9FA8246E3
:108C70002168A869FBF7E4FA83465146FBF788FAB6
:108C800081460099FBF784FA804626606760C4F845
:108C90000880BDE8F88F00002DE9F0412B4A116AE9
:108CA000D069FEF785F805462949FBF7C9FA04465D
:108CB000FBF7C3FB00B2274908802448806980F095
:108CC00000473846FDF73AFD06462349FBF7B5FA5B
:108CD00005461F49FBF7B4FA0446FBF7AEFB00B2AA
:108CE0001C494880194A1168D068FEF761F880F085
:108CF000004517492846FBF7A3FA0446FBF79DFBFE
:108D000000B214498880B1F90000002801DB014657
:108D100000E0414242F22832914214DB0D48B0F9A2
:108D20000200002807DD0B4840885100081A00B2F5
:108D30000849488007E0074840884BF6B011081AF8
:108D400000B204494880BDE8F0810000900E002088
:108D50009F0CB34580000020DB0FC93F0748007817
:108D6000642802DB64200549087004480078642800
:108D700001DA012070470020FCE7000025000020F8
:108D80001FB54FF07A500C49096848600B480A49F2
:108D9000096808600A48006800900A480068019065
:108DA000094800680290094800680390694608482D
:108DB000FFF712FC1FBD0000900000200AD7233BE4
:108DC0007000002074000020780000207C0000204B
:108DD000900E00202DE9F04704464FF07C512046CC
:108DE000FBF72EFA814625462E460C48A0EB660678
:108DF000354629464846FBF723FA82462946FBF7C3
:108E00001FFA80464FF07F51FBF717FA07462946B5
:108E1000FBF716FA05462846BDE8F087DF59375FAD
:108E200000B50346002B3DD0012B02D0022B38D1D8
:108E30000AE01F480078052805DB00201C4908705F
:108E40000F2000F07DF831E019480078042827DB76
:108E5000002017490870174801780078401C154A0F
:108E6000107019B90F2000F04DF819E01148007882
:108E70000B2812DC032000F027F80E4800780528A4
:108E800003D00C480078072803D10C2000F01CF810
:108E900006E00C2000F036F802E0002005490870DA
:108EA00004E000BF0F2000F02DF800BF00BF00BDA0
:108EB000000000200100002010B5FFF773F80F201C
:108EC00000F020F810BD000000F0010111B10821F0
:108ED0000B4A116000F0020119B14FF40051084A29
:108EE000116000F0040119B14FF48041044A11608F
:108EF00000F0080119B14FF48071014A1160704708
:108F0000100C014000F0010111B108210B4A116061
:108F100000F0020119B14FF40051084A116000F04D
:108F2000040119B14FF48041044A116000F00801B6
:108F300019B14FF48071014A11607047140C01405F
:108F400000F0010129B11149096881F008010F4AB7
:108F5000116000F0020129B10C49096881F4005147
:108F60000A4A116000F0040129B10849096881F436
:108F70008041064A116000F0080129B103490968DF
:108F800081F48071014A1160704700000C0C0140AF
:108F900070B50546FBF710FD0446400010F1020FC6
:108FA0000DD12846FBF75FFB05462046FBF72AFA62
:108FB0002946FBF78BFA1CBF0120FCF7EFFD20468A
:108FC00070BD000086B05B485B490860FFF7DEF9C2
:108FD000FFF772FF01F03EFFFEF732FB01F0F0FBFE
:108FE00000F0F6F855A0FCF7D9FCC820FEF770FB9E
:108FF000FDF7BEFAFFF7C4FEFEF7A8F800F0D2FABC
:109000005448007820F010001030524908700020B9
:109010005149087051A0FCF7C1FC89E0554890F80F
:109020002D0018B9534890F82C0018B10120FFF713
:10903000F7FE0BE047480078C0F3400018B102206B
:10904000FFF7EEFE02E00020FFF7EAFE00F014FA60
:10905000FDF714FDFDF702FDFEF75AFB4649B1F995
:109060000000002801DB014600E04142B1F5FA5F53
:1090700009DA4149B1F90210B1F5FA5F01DB0121CA
:1090800000E0002151B13348007820F0020031495E
:1090900008700846007820F004000870374800780F
:1090A000022845DB0020354908703349B1F9040036
:1090B000FBF7A8F983463249FBF7F4F88246FBF741
:1090C000D5F904460D462C49B1F90200FBF79AF98F
:1090D00083462B49FBF7E6F88246FBF7C7F90646BD
:1090E0000F462549B1F90000FBF78CF98346244966
:1090F000FBF7D8F88246FBF7B9F9804621480068AB
:1091000042460B46CDE90067CDE9024504901EA01A
:10911000FCF744FC2048B0F9040000901E48B0F968
:109120000630B0F90220B0F900101CA0FCF736FCA4
:1091300074E700000040000808ED00E073756176F8
:109140002073797374656D207374617274210D0AD4
:1091500000000000080200202500002073756176E1
:109160002073797374656D207265616479210D0ACD
:1091700000000000880D0020800000202400002056
:109180000000C8424801002025662C25662C256673
:109190002C25642C00000000F601002025642C25FD
:1091A000642C25642C25640A0000000002468A42D3
:1091B00001DD104670470846FCE7000010B5034883
:1091C000FCF78BF80446204610BD00000008004064
:1091D00010B5FEF7B5FF002002490880488088805E
:1091E000C88010BD0C02002010B50A4801880A484A
:1091F000FCF7DBF9074841880748FCF7D8F9054830
:1092000081880548FCF7D5F90248C1880248FCF777
:10921000D2F910BD0C020020000400403EB5062328
:1092200001AA1946D02001F089FA08B9012000E00E
:10923000002005469DF80900C007400F9DF8071063
:1092400001F0010140EA41009DF8051001F0010123
:1092500040EA0104DDB1D4B1012C06D101201D4941
:1092600008701DA0FCF79AFB33E0022C03D100200C
:10927000184908702DE0032C01D0072C03D10020E1
:109280001449087025E01BA0FCF788FB21E00123AE
:109290006A460C21D02001F051FA08B9012000E003
:1092A000002005469DF8000000F00F0405B11CB930
:1092B00010A0FCF773FB0BE0042C06D1012005493C
:1092C000087005A0FCF76AFB02E000200149087065
:1092D00000BF3EBD580000204D505536303530207F
:1092E00048414C465F5245534F4C5554494F4E0DE3
:1092F0000A0000004D505536303530205245564555
:1093000053494F4E204552524F52210D0A00000042
:1093100010B500BF6420FEF7DBF900F0ADF8802245
:109320006B21D02001F018FB00B1F3E76420FEF7B9
:10933000CFF903226B21D02001F00EFB0220FEF7B3
:10934000C7F900226C21D02001F006FB0220FEF7B5
:10935000BFF901221921D02001F0FEFA0F20FEF7FB
:10936000B7F903221A21D02001F0F6FA18221B21A6
:10937000D02001F0F1FA10221C21D02001F0ECFAEB
:1093800000226A21D02001F0E7FA0A20FEF7A0F9B6
:10939000FFF744FF10BD00007FB505460E460E23C3
:1093A0006A463B21D02001F0C9F9002859D19DF827
:1093B00001009DF8001040EA012000B22A4908800F
:1093C0009DF803009DF8021040EA012000B22649F2
:1093D00048809DF805009DF8041040EA012000B285
:1093E000214988809DF807009DF8061040EA012079
:1093F00000B21E4908809DF809009DF8081040EA57
:10940000012000B21A4908809DF80B009DF80A104F
:1094100040EA012000B2164948809DF80D009DF8F1
:109420000C1040EA012000B211498880002413E0AA
:109430000D4830F9140045F824000E48007820B19A
:1094400055F82400400045F82400094830F914007C
:1094500046F82400601CC4B2032CE9DB012004B0F0
:1094600070BD0020FBE700004A00002056000020ED
:1094700050000020580000202DE9F0410F2775E032
:109480000020434908804348006886286BD800F0D4
:10949000D3FF40490A680968491C3E4B19603E49A0
:1094A00088540846C078401DC4B208460078012898
:1094B0004DD118460068A04249D1002019460860E5
:1094C0000026002505E03448405D3044C6B2681CE3
:1094D000C5B2601EA842F6DCF043401CC6B2601E56
:1094E0002D49085CB0422DD108464078032801D0B0
:1094F00000F06EFF2948007838B90120274908702C
:1095000025488078401E26490870234880782449E1
:109510000978884216D020488078214908701E4872
:109520004078012802D003280AD104E01A48001D1F
:10953000FEF7D2FE05E01848001DFEF7A7F800E090
:1095400000BF00BF4FF480711348FAF716FE1148B0
:10955000006801280AD110480078012806D00020B0
:109560000C49086002E000200A49086000F054FF3E
:1095700020B1381EA7F10101CFB281D10448008883
:10958000C82802DB002003490860BDE8F081000024
:109590000C00002044000020700400204100002046
:1095A0004000002010B500F00BF8002002490870C0
:1095B00002490860486010BDC0000020E80000209B
:1095C00010B51C210C48FAF7D8FD4FF496400A4913
:1095D00088610A480860402008810948C860402125
:1095E00005488182806907498860034808600C301B
:1095F0004860FEF711FD10BDC4030020E003002009
:10960000200400207C0D00202DE9F04F8FB0824611
:10961000FE480590FE4804904FF07E50FD490860DA
:109620004860FD488860FD4888610146F948C1618D
:10963000F94901624FF07A50F64948620146F5480F
:109640008162F749C162F748F24908630146F1486F
:10965000416300218163F449486DFAF7D3FE514616
:109660000190FAF7EDFD0290F04801680298FAF7D0
:10967000E7FD0390EE4801680398FAF789FDEC498D
:109680000860E949886DFAF7BDFE51460190FAF786
:10969000D7FD0290E54801680298FAF7D1FD0390E2
:1096A000E34841680398FAF773FDE14948600020F8
:1096B000E04988800024F9E0022C33DADE4830F8F3
:1096C0001400A8B1DC4931F8141001EB81018900C4
:1096D00008B247F230525142FDF7DAFED74931F96C
:1096E00014100844D34931F91410A0EB01082EE0FE
:1096F000D14931F8141001EB8101890008B247F219
:1097000030525142FDF7C4FECC4931F914100844DF
:10971000C84931F91410401AC94951F8241000EB16
:10972000010814E0C44931F8141001EB81018900EB
:1097300008B247F230525142FDF7AAFEBF4931F953
:1097400014100844BB4931F91410A0EB010840463D
:10975000FAF758FE0290AF4850F824100298FAF732
:109760006FFD0390FAF769FE8346AF48543050F816
:1097700024000E900E98ABEB00063046FAF742FE3E
:109780000290A448183050F824100298FAF758FDB7
:109790000390FAF752FE0C903046FAF733FE019030
:1097A0009C48243050F824100198FAF749FD51469E
:1097B0000290FAF745FD0390A24850F82410039850
:1097C000FAF7E6FC9F4941F82400022C16D151F823
:1097D00024009D49FAF77AFE04D29B48994941F842
:1097E000240022E0974951F824008849FAF778FECE
:1097F0001BD28648934941F8240016E0914951F85C
:1098000024009249FAF762FE04D290488D4941F84B
:1098100024000AE08B4951F824007D49FAF760FEE4
:1098200003D27B48874941F82400864951F8240037
:10983000FAF703FE0B90864951F82410701AFAF7D4
:10984000E1FD8146824840F8246051464846FAF7D7
:1098500029FD81467F4A52F824107F4A52F824009D
:10986000FAF796FC49460390FAF792FC0D907A4875
:1098700050F82400774941F82400774840F82490B4
:109880006448303050F824100D98FAF7D9FC039052
:10989000FAF7D3FD0A90DDE90B1008440A99084451
:1098A00000B208A921F81400601C44B2032CFFF692
:1098B00003AF6149C988A1F2DC5108B24FF4FA72D2
:1098C0000021FDF7E5FD400000F57A7000B24FF48D
:1098D000FA6251100390FDF7DBFDBDF820104942FC
:1098E0000844BDF8221049420844BDF824104942FA
:1098F000084400B2ADF818004F49C988A1F2DC5104
:1099000008B24FF4FA720021FDF7C2FD400000F5E5
:109910007A7000B24FF4FA6251100390FDF7B8FD6F
:10992000BDF8201049420144BDF822000144BDF8B1
:109930002400084400B2ADF81A003F49C988A1F2DA
:10994000DC5108B24FF4FA720021FDF7A1FD40008E
:1099500000F57A7000B24FF4FA6251100390FDF7EF
:1099600097FDBDF820100844BDF82210494201447B
:10997000BDF82400084400B2ADF81C002E49C98887
:10998000A1F2DC5108B24FF4FA720021FDF780FD1C
:10999000400000F57A7000B24FF4FA625110039063
:1099A000FDF776FDBDF820100144BDF82200084403
:1099B000BDF824104942084400B2ADF81E00BDF9BC
:1099C0001870012409E006A830F91400B84202DD3D
:1099D00006A830F91470601C44B2042CF3DB002498
:1099E00070E0B7F5FA6F09DD06A830F81410A7F596
:1099F000FA60081A00B206A921F8140006A931F984
:109A000014004FF4FA6240F24C4127E00000644336
:109A10000000AF43500F00209A99993ECDCCCC3D29
:109A20009A99193F52499D3A880D00206000002004
:109A3000E800002080000020F6010020FE01002048
:109A4000FC000020A00F0020000064C30000AFC392
:109A5000940F0020B80F0020AC0F0020FDF718FD78
:109A600006A921F8140024480078C0F3400020B172
:109A700021480078C0F3800010B31F480078C0F37D
:109A8000800028B140F24C4006A921F8140004E0FF
:109A90004FF47A7006A921F8140000250EE000208A
:109AA000164941F82500164941F82500154941F8A5
:109AB0002500154941F82500681C45B2032DEEDB51
:109AC000601C44B2042C8CDBBDF81800A0F57A7041
:109AD0000E490880BDF81C00A0F57A704880BDF8DA
