:020000040800F2
:10400000C024002029410008314100083341000844
:104010003541000837410008394100080000000020
:104020000000000000000000000000003B4100080C
:104030003D410008000000003F41000841410008E8
:104040004341000843410008434100084341000840
:104050004341000843410008434100084341000830
:104060004341000843410008434100084341000820
:104070004341000843410008434100084341000810
:104080004341000843410008434100084341000800
:1040900043410008434100084341000843410008F0
:1040A00043410008434100084341000843410008E0
:1040B00043410008434100084341000843410008D0
:1040C00043410008434100084341000843410008C0
:1040D00035540008434100087D530008434100085F
:1040E00043410008434100084341000843410008A0
:1040F0004341000843410008434100084341000890
:10410000794E00084341000843410008434100083C
:1041100043410008DFF80CD000F040FB00480047A6
:104120000D980008C0240020064880470648004734
:10413000FEE7FEE7FEE7FEE7FEE7FEE7FEE7FEE757
:10414000FEE7FEE7C94D000815410008D2B201E0C4
:1041500000F8012B491EFBD270470022F6E710B58C
:1041600013460A4604461946FFF7F0FF204610BDE5
:104170002DE9FE4F81EA030404F0004421F00041E0
:1041800000944FF0000B23F0004350EA01045ED08E
:1041900052EA03045BD0C3F30A54C1F30A552C441A
:1041A000A4F2F3340194A0FB0254C1F3130141F4CF
:1041B0008011C3F3130343F4801301FB024400FB9B
:1041C000034E840A970A44EA815447EA8357A4FBC2
:1041D000076802958D0A05FB07854FEA932C04FBBF
:1041E0000C542705029D4FEA065847EA1637B5EBEF
:1041F00008056EEB070C870E920E47EA811742EA1C
:104200008312A7FB0201B6EB0B0164EB00042B0D3C
:1042100043EA0C335E1844EB1C50DA465146E7FB88
:104220000201C5F313044FEA0B3343EA14534FEA78
:104230000432019C43EA0603A4F10C040294009C9E
:10424000CDE900B400F0EDF803B0BDE8F08F002038
:104250000146F9E70EB540F2334102910021CDE964
:1042600000110A460B4600F0DCF803B000BD00F078
:10427000004230F000400AD0C10D01F56071C0F37A
:10428000160042EA0151C20840071143704700205E
:104290000146704701F0004330B421F0004150EA7C
:1042A000010206D00A0DA2F56072C1F31301002AC3
:1042B00002DC30BC00207047440F44EAC104C10056
:1042C000E01830BC00EBC25000F047B830B50B46E8
:1042D000014600202022012409E021FA02F59D4236
:1042E00005D303FA02F5491B04FA02F52844151E0A
:1042F000A2F10102F1DC30BD2DE9F05F054600209E
:1043000092469B4688460646814640241BE0284646
:1043100041464746224600F062FA53465A46C01AC2
:10432000914110D311461846224600F049FA2D1A41
:1043300067EB01084F4622460120002100F040FAB9
:1043400017EB00094E41201EA4F10104DFDC4846B2
:1043500031462A464346BDE8F09F0029A8BF704772
:10436000401C490008BF20F00100704710B4B0FAAB
:1043700080FC00FA0CF050EA010404BF10BC704746
:1043800049B1CCF1200421FA04F411FA0CF118BF60
:10439000012121430843A3EB0C01CB1D4FEA00612F
:1043A0004FEA102042BF002010BC704700EBC35002
:1043B00010440029A4BF10BC7047401C490008BF2E
:1043C00020F0010010BC704710B541000CD0C0F3C4
:1043D000C751962908DC7E2909DC06DB410204D09E
:1043E00000F0004040F07E5010BD002010BDC1F133
:1043F0009604C4F1200100FA01F1E040FFF7ADFF9F
:10440000A04010BD10B5141E73F1000408DA401C62
:1044100041F1000192185B411A4301D120F00100E3
:1044200010BD2DE9F04D92469B4611B1B1FA81F2D3
:1044300002E0B0FA80F22032904600F0C1F9044662
:104440000F4640EA0A0041EA0B0153465A46084328
:1044500013D0114653EA010019D0C8F1400250466A
:1044600000F0BDF905460E4650465946424600F05A
:10447000A7F9084305D0012004E020463946BDE8ED
:10448000F08D0020054346EAE0762C4337430A9836
:104490006305E40AA0EB08000022FD0A44EA475441
:1044A0000A3002D500200146E9E7010510196941EB
:1044B000DDE9084500196941BDE8F04DA2E72DE9A5
:1044C000FE4F804681EA0300C00F0C46009021F0A9
:1044D000004123F00045B8EB0200A94105D2404657
:1044E000214690461C460B46024623F000401043EE
:1044F00047D0270DC7F30A00C3F30A510290401AB0
:10450000019040286BDAC3F3130040F4801B00983D
:10451000924620B10023D2EB030A63EB0B0B019808
:104520005946C0F14002504600F04AF906460D4691
:1045300050465946019A00F062F910EB08006141BB
:10454000002487EA115284EAE7731A4340D0009AA4
:1045500062B3019A012A4FEA075215DC001B61EB96
:1045600002014FF0004202EA0752CDE90042001C6E
:1045700041F5801132462B46FFF753FF03B0BDE8EB
:10458000F08F40462146F9E7001B61EB0201001C59
:1045900041F5801300185B412018A2F5001747EB86
:1045A000030140EAD570B6196D4111E06D084FEA7C
:1045B000360645EAC0754FEA0752001B61EB02015F
:1045C000001C41F5801149084FEA300000195141A3
:1045D00032462B4603B0BDE8F04FFFF713BF0098FB
:1045E000012240000023D0EB020263EBE07300984D
:1045F00021464FEAE074B8EB000061EB0401E9E703
:1046000083F000435BE781F0004158E72DE9F04D6E
:1046100081EA030404F0004B21F0004514464FF0FA
:10462000000A23F0004150EA050220D054EA0102BA
:104630001DD0C5F30A570246C5F31303C1F3130097
:10464000C1F30A5640F4801543F48013A7EB060823
:10465000101BD64608F2FD3873EB050002D308F1B3
:10466000010801E092185B41B8F1000F03DA002065
:104670000146BDE8F08D00204FF4801106468446C7
:104680000EE0171B73EB050705D3121B63EB050345
:1046900006434CEA010C49084FEA300092185B418E
:1046A00050EA0107EDD152EA030012D082EA040079
:1046B00083EA0501084305D0101BAB4106D2012255
:1046C000002306E000224FF0004302E06FF00102F9
:1046D00053101AEB06004CEB085110EB0A0041EBAB
:1046E0000B01BDE8F04DFFF78DBEC1F30A52C1F3D7
:1046F000130140F2FF3341F480119A4202DA0020A4
:104700000146704740F233439A42A2F2334202DC40
:10471000524200F064B800F053B810B500F0004405
:1047200020F00040C20DC0F3160040F400007F2AC4
:1047300007DA7D2A00DA7D22763A00FA02F10020BB
:1047400008E0962A09DCA2F1760100FA01F1C2F133
:104750009602D040FFF701FE01E0963A9040002C0F
:1047600000D0404210BD000030B5041E71F10004BD
:1047700004DB4FF00044404264EB0101141E73F16E
:10478000000405DB1C464FF00043524263EB040378
:10479000994208BF904230BD00207047064C074D3B
:1047A00006E0E06840F0010394E807009847103401
:1047B000AC42F6D3FFF7B2FCD4B40008F4B400085E
:1047C000202A04DB203A00FA02F1002070479140D1
:1047D000C2F1200320FA03F3194390407047202AC6
:1047E00004DB203A21FA02F00021704721FA02F39B
:1047F000D040C2F120029140084319467047202A58
:1048000006DBCB17203A41FA02F043EAE07306E0F8
:1048100041FA02F3D040C2F1200291400843194608
:10482000704770B58C1810F8015B15F0070301D1C3
:1048300010F8013B2A1106D110F8012B03E010F803
:10484000016B01F8016B5B1EF9D12B0705D4002326
:10485000521E0DD401F8013BFAE710F8013BCB1AC8
:10486000921C03E013F8015B01F8015B521EF9D5BD
:10487000A142D8D3002070BD0249C9680143014A52
:10488000D16070470020024000B50246042300F0CA
:1048900045F8034603E000F041F80346521E012BA1
:1048A00001D1002AF7D102B90723184600BD000044
:1048B0000348006940F0800001490861704700002A
:1048C0000020024030B5044604253420FFF7D4FF11
:1048D0004FF43020FFF7D8FF0546042D16D10C48C1
:1048E000006940F002000A49086108464461006915
:1048F00040F0400008614FF43020FFF7C5FF054647
:104900000348006920F0020001490861284630BDD3
:1049100000200240014608687047000004200B494F
:10492000C96801F0010109B101200EE00749C96819
:1049300001F0040109B1022007E00449C96801F04F
:10494000100109B1032000E004207047002002405C
:10495000024803494860034848607047230167459F
:1049600000200240AB89EFCD70B504460D46042609
:1049700004F0030008B1062070BD3420FFF77CFF6F
:104980004FF40050FFF780FF0646042E10D109486F
:10499000006940F00100074908612560F002FFF757
:1049A00073FF06460348006920F0010001490861D1
:1049B0003046E1E70020024030B50346002002F017
:1049C000080464B1586A5407E50E0F24AC40A043B4
:1049D0005407E40E01FA04F4204358620BE0186A0D
:1049E0005407E50E0F24AC40A0435407E40E01FA2F
:1049F00004F42043186230BD30B50B460021C16A73
:104A000055000324AC40A143540003FA04F42143AD
:104A1000C16230BD70B5034600200024186801F063
:104A2000030456000325B540A843550004FA05F5D4
:104A300028431860012905D0112903D0022901D08B
:104A4000122908D1586801259540A843C1F30015E3
:104A500095402843586070BDF0B506460C460025C9
:104A600000271FE00121A940206800EA0107C7B123
:104A70002A4630466169FFF79FFF2A463046616843
:104A8000FFF7C8FF2A463046A16800F010F82A4612
:104A90003046E16800F019F82A4630462169FFF7F0
:104AA000ABFF6D1C2068E8400028DBD1F0BD30B5BD
:104AB0000B460021C16855000324AC40A1435400BB
:104AC00003FA04F42143C16030BD10B50B46002148
:104AD000816801249440A14303FA02F421438160D8
:104AE00010BD4FF6FF7101600021C16041600F21D0
:104AF00041610021816001617047000070B50021B3
:104B000000230F22C47804B3154C246804F4E06435
:104B1000C4F5E064210AC1F10403CA40447804FAF0
:104B200003F184781440214309010E4C0678A15505
:104B3000047804F01F050124AC4005786D11AD0028
:104B400005F1E025C5F8004109E0047804F01F05EF
:104B50000124AC40044D0678761145F8264070BD1E
:104B60000CED00E000E400E080E100E0024949696A
:104B70000143014A51617047001002400249C9696E
:104B80000143014AD161704700100240024989691E
:104B90000143014A9161704700100240F0B50022C4
:104BA00000BF0021002500243B4E76683B4F06EAFB
:104BB0000701394E766806F4803501F000661EB9AB
:104BC000022606EB914104E04FF4F876C6EB9146DD
:104BD000711C65B9304E366C06F001061EB1304EC0
:104BE00001FB06F30FE02F4E01FB06F30BE02A4E0C
:104BF000766806F400361EB1294E01FB06F302E08A
:104C0000284E01FB06F3244E766806F00C0222B112
:104C1000042A05D0082A08D105E0224E066007E0E4
:104C2000204E066004E0036002E01E4E066000BFF6
:104C300000BF194E7668C6F303121B4EB45C0668BB
:104C4000E6404660144E7668C6F30222164EB45C07
:104C50004668E6408660104E7668C6F3C222124E61
:104C6000B45C4668E640C6600B4EF66A06F00F027A
:104C70000E4EB45C4668B6FBF4F64661064EF66A24
:104C8000C6F3041202F00F06094F37F81640B3FBC3
:104C9000F4F60661F0BD00000010024000003C0880
:104CA00000093D0000127A0034B3000844B3000844
:104CB00054B300080FB500200290019000903C48CA
:104CC000006840F001003A49086000BF38480068B9
:104CD000C0F3400001900098401C00909DF8040033
:104CE00018B90098B0F5A06FF0D131480068C0F352
:104CF000400001909DF8040018B92E482E49086024
:104D00000FBD2E48006820F007002C4908600846B7
:104D1000006840F003000860254840682449486066
:104D20000846406840F4005048600846406840F437
:104D3000A060486008464068214908401C49486016
:104D40000846006C20F001000864084640680390A3
:104D500003980390029840F00100029019490398CB
:104D60000843039012490398486002980864084673
:104D7000006840F08070086000BF0D48006800F0D7
:104D800000700028F9D00A48406820F00300084964
:104D900048600846406840F00200486000BF044890
:104DA000406800F00C000828F9D100BFA8E7000017
:104DB0000010024000127A00000000200020024093
:104DC000FFFFC0F700003C0810B52348006840F41E
:104DD0007000214908602148006840F001001F4927
:104DE0000860084640681E4908401C49486008465B
:104DF00000681C490840194908600846006820F40A
:104E000080200860084640681749084013494860F8
:104E10004FF46050C8620020086414488860084657
:104E2000C06940F08050C8610846C06920F08050D9
:104E3000C8610F48006840F080000D4908600846CE
:104E4000006820F010000860FFF734FF09480249AD
:104E50008039086010BD000088ED00E000100240BD
:104E60000CC07FF8FFFFF6FEFFFFC0F700009F04B5
:104E7000002002400040000810B50121054800F064
:104E800002F930B10121034800F0FAF80248006845
:104E9000804710BD00100040300000208185704721
:104EA00021B1026842F40062026003E0026822F469
:104EB00000620260704721B1026842F480520260D1
:104EC00003E0026822F480520260704721B1026858
:104ED00042F40052026003E0026822F400520260D1
:104EE000704721B1026842F48042026003E0026828
:104EF00022F48042026070470146888C70470A465F
:104F00000021016821F07001114301607047000029
:104F100030B504460D462548844207D069882046AE
:104F2000FFF7EDFFE988204600F082F8A9882046C7
:104F3000FFF7B4FF2988204600F04DF81C48844252
:104F400002D01C48844203D1297A204600F047F859
:104F50000121204600F041F81448844203D0697AC8
:104F60002046FFF79DFF124884420BD0114884422F
:104F700008D0B4F1804F05D00F48844202D00F48CA
:104F8000844203D1697B204600F01AF8B4F1804FC7
:104F90000BD1A97A2046FFF78EFFE97A2046FFF76A
:104FA00095FF297B2046FFF79CFF30BD0010004095
:104FB000002C014000340140000400400008004083
:104FC00021B1026842F40042026003E0026822F468
:104FD00000420260704701857047818270470186F8
:104FE00070474FF6FF71818000210180C1804180B0
:104FF000017241728172C172017341738173704792
:10500000026A01238B409A4302627047026A0123BD
:105010008B401A4302627047026A04238B409A4312
:1050200002627047026A04238B401A43026270478F
:10503000026822F44072026002680A43026070470C
:105040000A46416B6FF30F011143416370470A46F3
:10505000816B6FF30F011143816370470A46C16B87
:105060006FF30F011143C16370470A46016C6FF380
:105070000F0111430164704782890A43828170479E
:10508000CA430261704710B502460023002410692C
:1050900000EA0103908900EA010413B10CB1012078
:1050A00010BD0020FCE7016821F00101016070479C
:1050B000016841F00101016070470000F0B505464C
:1050C0000C460027002600212846FFF799FF6E684E
:1050D0002F8B4FF68F7007404FF6FC7007402088EB
:1050E000074321890022284600F033F9608820B167
:1050F00000212846FFF78AFF03E000212846FFF73A
:105100007FFF1148854202D01048854217D161893E
:105110000022284600F012F9A08820B1002128467C
:10512000FFF780FF03E000212846FFF775FF26F414
:10513000807626F40076A0890643E08906436E60F7
:105140002F83E0886863F0BD002C014000340140EB
:10515000F0B505460C460027002604212846FFF737
:105160004FFF6E682F8B48F6FF7007404FF6FF40E9
:10517000074020884FF6FF7101EA0020074321898C
:105180000422284600F0E5F8608820B10421284672
:10519000FFF73CFF03E004212846FFF731FF1248E8
:1051A000854202D01148854219D1618904222846DE
:1051B00000F0C4F8A08820B104212846FFF732FF90
:1051C00003E004212846FFF727FF26F4806626F433
:1051D0000066A08946EA8006E08946EA80066E609D
:1051E0002F83E088A863F0BD002C0140003401400B
:1051F000F0B505460C460027002608212846FFF793
:10520000FFFE6E68E86987B24FF68F7007404FF671
:10521000FC7007402088074321890822284600F0B7
:1052200098F8608820B108212846FFF7EFFE03E0D8
:1052300008212846FFF7E4FE1248854202D01248B2
:10524000854219D161890822284600F077F8A088A4
:1052500020B108212846FFF7E5FE03E00821284693
:10526000FFF7DAFE26F4805626F40056A08946EAB7
:105270000016E08946EA00166E60EF61E088E86398
:10528000F0BD0000002C014000340140F0B505469F
:105290000C46002700260C212846FFF7B1FE6E6859
:1052A000E86987B248F6FF7007404FF6FF400740B5
:1052B00020884FF6FF7101EA0020074321890C2264
:1052C000284600F046F8608820B10C212846FFF7F8
:1052D0009DFE03E00C212846FFF792FE154885420B
:1052E0001AD161890C22284600F028F8A08820B144
:1052F0000C212846FFF796FE03E00C212846FFF715
:105300008BFE26F4804626F40036A08946EA8016F5
:10531000E08946EA002607E00748854204D126F4E2
:105320008046A08946EA80166E60EF61E0882864B6
:10533000F0BD0000002C01400034014010B50B46C8
:10534000016A08249440A14303FA02F42143016254
:1053500010BD10B50B46016A02249440A14303FA24
:1053600002F42143016210BD00210180418081804F
:10537000C180018141818181C181704770B52B4815
:105380004068C4882948006885882021284800F0A2
:1053900003F9F8B12021264800F0FBF8244800F07A
:1053A000E5F8C6B2681C80B205462049096809893B
:1053B000884200DB00251D480068C088A84209D04B
:1053C0001A480068006819490968898846541748CE
:1053D000006885808021164800F0DEF820B313486D
:1053E00040688088A04215D0601C80B204460F49F6
:1053F00049680989884200DB00240C48406800683D
:105400000A4A5268D288815C094800F0B4F807481B
:105410004068C480054840688088A04204D140F2BA
:105420002771034800F0E4F870BD0000700D002003
:105430000050014070B52B484068C4882948006876
:1054400085882021284800F0A7F8F8B120212648B7
:1054500000F09FF8244800F089F8C6B2681C80B2BA
:105460000546204909680989884200DB00251D4856
:105470000068C088A84209D01A4800680068194925
:105480000968898846541748006885808021164835
:1054900000F082F820B3134840688088A04215D0FD
:1054A000601C80B204460F4949680989884200DBC4
:1054B00000240C48406800680A4A5268D288815C1F
:1054C000094800F058F807484068C480054840681B
:1054D0008088A04204D140F22771034800F088F888
:1054E00070BD0000640D0020003801402DE9F04738
:1054F00086B00446894600BF4FF0000A00BF00BFD7
:10550000D046A0466846FFF749FB1548804505D0C0
:105510001448804502D01448804502D1DDF80CA023
:1055200001E0DDF808A00AEBCA0000EB0A104FEA20
:105530008901B0FBF1F66420B6FBF0F00501280903
:10554000642101FB1067322000EB0710B0FBF1F083
:1055500000F00F000543258106B0BDE8F08700008C
:105560000038014000500140005401400146888845
:10557000C0F308007047C1F3080282807047818938
:1055800021F4005181817047818941F4005181816A
:105590007047CA430280704702461088084008B12D
:1055A000012070470020FCE70A460021818A21F48F
:1055B000407111438182704770B505460C462846FC
:1055C0002168FFF793FFA188284600F05FF8E18883
:1055D000284600F053F82189284600F047F86189F1
:1055E000284600F03BF8A1892846FFF7DDFF70BD93
:1055F00070B5024600230024002500201046C1F3A8
:10560000421301F01F04012606FA04F5012B01D113
:105610000C3004E0022B01D1103000E01430066899
:10562000AE43066070BD70B502460023002400251D
:1056300000201046C1F3421301F01F04012606FAB0
:1056400004F5012B01D10C3004E0022B01D1103004
:1056500000E0143006682E43066070BD0A46002143
:10566000818921F00C011143818170470A46002194
:10567000818921F4C0611143818170470A4600216C
:10568000018A21F440511143018270470A460021EA
:10569000818921F480511143818170470FB4054BFA
:1056A00010B503A9044A029800F0D2FF10BC5DF8BF
:1056B00014FB0000957C000808020020410008024D
:1056C00018BF04200A0E18BF40F001004FF07F42BF
:1056D00032EA010108BF40F00200012808BF05209E
:1056E0007047000010EE100A10B510EE901A4FF03F
:1056F000684202EB40032DED028BB3F1654F3CBFD6
:1057000002EB4102B2F1654F7CD200BFC0F3C75338
:10571000C1F3C7529A1A1B2A09DD10F0004F14BFBB
:105720009FED6E0A9FED6E0ABDEC028B10BD12F16B
:105730001A0F1BDA11F0004F09D010F0004F0CBF08
:105740009FED680A9FED680ABDEC028B10BD80EEEC
:10575000208A18EE100AFFF7B1FF042808BF00F0F6
:10576000EDFDB0EE480ABDEC028B10BD4200B2EB7D
:10577000410F37D910F0004F19BFDFED5C1A9FEDD4
:105780005C1ADFED5C1A9FED5C1AB0EE602A0A46E7
:10579000F1EE400A80F00041B0EE420A10460A1ACB
:1057A0005200B2F1807F34D2484010F0004FDFED5C
:1057B000532A9FED533A1DBFBEEE002A71EEE21A46
:1057C00031EE431AB6EE002A04BF71EEA21A31EE92
:1057D000031AF0EE402A42EE602A40EE020A82EE00
:1057E000A02A18E011F0004F04BF9FED461AF0EE1A
:1057F000411AD4D010F0004F1CBFDFED431A9FEDCB
:10580000431A00E026E004BFDFED411A9FED411A84
:10581000C5E780EE202A22EE020ADFED3F0ADFED27
:105820003F2ABDEC028B40EE202ADFED3D0A40EE20
:10583000220ADFED3C2A40EE202ADFED3B0A40EE53
:10584000220A22EE000A00EE201A31EE020A30EEA1
:10585000210A10BD4FF07F42B2EB400F28BFB2EBE0
:10586000410F05D2BDEC028BBDE8104000F053BDE6
:1058700040EA01035B0008BF41F0FF410BD0B2EBEF
:10588000400F08BFB2EB410F08D120F0804000EE7E
:10589000100A21F0804100EE901A37E7B2EB400F7A
:1058A00012BF5FEA410240F0FF4001F000413FF4C7
:1058B0002DAF4A0092EA40033FF528AF002AACBF63
:1058C0009FED1A1A9FED1A1A20EE010A60EE810A66
:1058D00010EE100A10EE901A18E70000DB0FC9BF97
:1058E000DB0FC93FDB0F4940DB0F49C00000C9BFD8
:1058F00022AAFDB90000C93F22AAFD390060ED3E91
:10590000C30ACE3700000000000049C022AA7DBAB9
:105910000000494022AA7D3A2DAD65BD8FB8D53D26
:105920000FB511BE61C84C3EA8AAAABE0000804FA8
:105930000000802F10EE101A08B5444A6846B2EBFA
:10594000410F28D94FF0E640B0EB410F94BF002043
:105950004FF0FF3000900098002861DB60EE000AF5
:1059600010F0010F45D010F0020FDFED391A9FED56
:10597000391A00EEE11ADFED381A40EE811A21EEF5
:10598000A01AF0EE400A40EE010A08BFF1EE600AEC
:10599000B0EE600A08BD314B21F0004293423CD981
:1059A00011F0004FDFED2E0A20EE201ADFED2D0A58
:1059B00019BF31EE601A71EE200A31EE201A71EE35
:1059C000600ABDEEE01A11EE100A9FED271A00F0F2
:1059D000030000EEC10A9FED251A009000EEC10AF7
:1059E0009FED231A00EEC10A9FED221A00EEC10AB4
:1059F000B1E79FED211A9FED210A10F0020F00EE92
:105A0000810A9FED1F1A00EE801AB7EE000A00EE21
:105A1000810A18BFB1EE400A08BD00F097FC9AE772
:105A200010EE100A4000B0F17F4F3CBFB7EE000A05
:105A300008BD07D14FF0010000F042FDBDE808406D
:105A400000F06CBCBDE8084000F062BCB61F927E5E
:105A5000336D4C39DA82083CA0AA2ABE490E494669
:105A600083F9223F0000004B0000C93F00A0FD3930
:105A70000020A2331A61342CB93AB2BACA9F2A3D27
:105A8000DDFFFFBE10B52DED028BB0EE408A18EEA3
:105A9000100AFEF742FE0446400010F1020F11D139
:105AA00018EE100AFEF790FC00EE904A00EE100A85
:105AB000F8EEE00AB4EE600AF1EE10FA1CBF012025
:105AC00000F0FEFC2046BDEC028B10BD10B510EEC0
:105AD000100A2DED068BB7EE001A10EE901AB0EEFC
:105AE000418A0022A0F5000CDFEDFE9A4FF0007312
:105AF000BCF1FE4F4FF07F4403EB410C80F0B481CA
:105B0000BCF1804FC0F02082F74901449FEDF73A85
:105B1000B1F5005F40F2D48200F58021CB0C03F098
:105B20000F0101EE901AC3F307137F3BA0EBC350A4
:105B3000B8EEE12A00EE100A1A44DFEDED2AF0EE8D
:105B4000411A42EE221AF0EE613A70EE232A30EE4C
:105B5000632A12EE900A00F500606FF30B0001EE6D
:105B6000900A73EEE13A33EE804AC1EE223A22EE19
:105B7000230A10EE100A00F500606FF30B0000EE30
:105B8000100A00EE612A00EE442A62EE232A70EE2B
:105B9000221A21EEA12ADFEDD73A02EE233A23EEB4
:105BA000023A20EE012A22EE811A03EE211A32EE89
:105BB000010A10EE100A00F500606FF30B0000EE12
:105BC000100A72EE401A31EE812A9FEDCB1A60EE78
:105BD000011A9FEDCA1A20EE011A9FEDC90A02EEC2
:105BE000001A31EE810A10EE100A00F500606FF322
:105BF0000B0000EE100AC34871EEC01A31EE812A84
:105C0000784400EBC10090ED003AD0ED011A10018C
:105C100001EE100AF8EEC12A32EE211A31EE001A16
:105C200031EE031A31EE221A11EE100A00F500606F
:105C30006FF30B0009EE100A39EE621A31EE431AC7
:105C400031EE400A30EE610A32EE40AA10EE900AC0
:105C5000002100F500606FF30B0008EE900A084683
:105C600070EEE8AAFEF798FD29EE280A00F00C0174
:105C7000F0EEC00A10EE900AB0F18B4F0DDD10EE81
:105C8000900AB4EB400F08D310EE100A4FF08B428D
:105C900062F31E0008EE900A13E069EE2A0A38EE5D
:105CA000AA1A4AEE010A30EE201A11EE100A00F587
:105CB00000606FF30B0008EE900A30EE680A70EE99
:105CC000209A0C20FEF768FD38EEA90AB5EEC00A4E
:105CD000F1EE10FA34BFFEEE000AF6EE000A30EEE6
:105CE000800ABDEEC00A10EE100A011100EE101A73
:105CF000F8EEC00A00EE100AB8EEC00A38EEC00A8C
:105D000030EE290ADFED801A9FED801A00EE211A8D
:105D1000DFED7F1A7F4900F00F0040EE011A21EEFF
:105D2000800A794401EB800191ED001A7A497944A7
:105D300001EB8001D1ED001A784901EE801A794417
:105D400001EB8000764990ED000A31EE001AB0EECA
:105D5000E00A10EE100A884215DA10EE100AB4EBD1
:105D6000400F10D39FED6F0A30EE800ADFED6E0A10
:105D700020EE200A68EE010ABDEC068BBCEEC00ADC
:105D800020EE200A10BD10EE100A6849884243DA5E
:105D900010EE100AB4EB400F3ED3BDEEE00A68EE01
:105DA000010A10EE100A00EBD0725110C90501F182
:105DB0007E5100EE101AA0EB6200C00560EE200AD2
:105DC00000F17E5000EE100A60EE808A18EE900A14
:105DD000B4EB400F0FD1022000F072FB00F0A6FAE6
:105DE00010EE101A18EE100ABDEC068B61F31E00BF
:105DF00000EE100A10BD18EE900A400011D018EE07
:105E0000900AFFF75BFC042808BF00F097FAB0EE99
:105E1000680ABDEC068B10BDF5EEC00AF1EE10FA73
:105E20000FD2022000F04CFB00F088FA10EE101A9E
:105E300018EE100ABDEC068B61F31E0000EE100A8E
:105E400010BD022000F03CFB00F070FA10EE101ABA
:105E5000B0EE480A10EE100ABDEC068B61F31E008E
:105E600000EE100A10BD00BFBCF1804F6CD300BF24
:105E700000F1FF43B3F1FE4F24D200BFB0EEC00AE1
:105E800010EE100AC1F3C7537F2B0DDB972BBFF623
:105E90003BAEC3F196034FF0010C0CFA03F3A3F1F0
:105EA000010C1CEA010F08D0012000F009FBBDEC39
:105EB000068BBDE8104000F031BA0B4218BFBFEEB0
:105EC000008A21E643001CBF4FF08073B3EB400F04
:105ED00034D96FF01A02DFED161A20EE210A10EE07
:105EE000100A27E000000000001080C0ABAAAA3E04
:105EF0000000803D7EE24C3E00B03842D49AB8BBF0
:105F00003BAA384270570000FC596337C9FF753A05
:105F10001872313D0E57000042570000B256000083
:105F20000000FC420000FE420000004B0000404325
:105F30000000004D10F0004FA0D1E5E5A0F50003F2
:105F4000B3F1FE4F21D2DFE503EB4103B3F1007F54
:105F500011D3F5EEC00AF1EE10FA05D1430018BFD7
:105F6000B4EB400F76D883E701F0004141F0FC51DB
:105F700000EE901A7CE7B3F1807F06D210EE903AE3
:105F8000A3F5000300EE903A72E720F000426FF0B4
:105F9000FF4C604C02EB0C03A34210D321F00043F2
:105FA0009C44A4450BD3B0F17E5F18BF5FEA410C5F
:105FB00050D0B2F1FF4F98BFB3F1FF4F05D9BDEC00
:105FC000068BBDE8104000F0A6B9B0F1FF4F0FD02E
:105FD000C1F3C7527F2A09DB972A11DAC2F1960270
:105FE000012303FA02F2531E0B4205D0002208E0FF
:105FF00011F0004F55D128E00A4218BF012200D10C
:10600000022210F5000F13D028B3B0F1004F26D0B4
:1060100010F1814F4FD04FF0FE42B2EB400F94BFD2
:1060200001200020012202EBE171884239D10CE00D
:1060300011F0004F02D0012A38D032E0012A02BF0D
:106040009FED350ABDEC068B10BD9FED340ABDEC0B
:10605000068B10BD2FE011F0004F0CD121E0B1F103
:10606000FF4F1ED011F5000F05D011F0004F15D0D5
:106070000AB1012A08D0022000F022FABDEC068BFA
:10608000BDE8104000F03AB9022000F019FA00F023
:1060900035F9BDEC068BB1EE400A10BD0AB1012AFC
:1060A00004D0B0EE690ABDEC068B10BDBDEC068BCA
:1060B0009FED1B0A10BDBDEC068BB7EE000A10BDAC
:1060C00030EE410AB5EE001A9FED172A00EE413A74
:1060D000B6EE001A60EE001A00EE431A61EEC11A25
:1060E0009FED101A20EE011A20EE020A9FED0F2AF2
:1060F00001EE820A71EE001A11EE900A00F50060BE
:106100006FF30B0009EE100A31EE491A31EE00AAC6
:106110009CE50000FFFF3F00000080FF0000807F43
:106120000000008000B0B841D49A38BB3BAAB84107
:1061300000B510EE101A2DED028B81B0524A684660
:10614000B2EB410F2ED94FF0E640B0EB410F94BFB8
:1061500000204FF0FF3000900098B0EE408A0028F9
:106160006ADB10F0010F4BD068EE080A9FED471A6A
:106170009FED470A00EE810A9FED461A10F0020FCC
:1061800000EE801AB7EE000A00EE810A02BF01B0ED
:10619000BDEC028B00BD00BF01B0B1EE400ABDEC0A
:1061A000028B00BD3C4B21F00042934241D911F0DB
:1061B000004FDFED3A0A20EE201ADFED390A19BF51
:1061C00031EE601A71EE200A31EE201A71EE600A8B
:1061D000BDEEE01A11EE100A9FED321A00F0030036
:1061E00000EEC10A9FED301A009000EEC10A9FED4B
:1061F0002F1A00EEC10A9FED2E1A00EEC10AABE77E
:1062000028EE080A9FED2B1ADFED2B0A10F0020F83
:1062100040EE410A9FED291A00EE201A61EE000AB5
:10622000B0EE480A08EE200AB6D101B0BDEC028BF0
:1062300000BD00F08BF88FE718EE100A4000B0F1B7
:106240007F4F0DD218EE100AFFF738FA042808BF66
:1062500000F074F8B0EE480A01B0BDEC028B00BD4E
:1062600009D1012000F02CF901B0BDEC028B5DF8E2
:1062700004EB00F053B801B0B0EE480ABDEC028B5D
:106280005DF804EB00F044B8B61F927EB93AB2BA9A
:10629000CA9F2A3DDDFFFFBE490E494683F9223FD2
:1062A0000000004B0000C93F00A0FD390020A233D0
:1062B0001A61342C336D4C39DA82083CA0AA2ABE0C
:1062C00010B52DED028BB1EEC08A18EE100A20F049
:1062D0000040C0F1FF40C00F0AD010EE100A20F0BD
:1062E0000040C0F1FF40C00F04BF012000F0E8F8FB
:1062F000B0EE480ABDEC028B10BD0000DFED030AD2
:10630000B7EE001A81EE200A70470000000000007E
:1063100030EE000A704730EE200A7047DFED020AC7
:1063200080EEA00A70470000000000009FED020A06
:1063300020EE000A70470000000000709FED020A86
:1063400020EE000A70470000000000102DE9F00167
:106350004FF07F42B2EB410F9FBF4FF0FF31016022
:10636000BDE8F00170474FF0004242EA0123C1F35B
:10637000C752783A551112F01F0C434CCCF120064D
:106380007C44C1F3C752A2F178024FEA621204EBD7
:10639000820254F8254008BFD2E9015612D0556850
:1063A00004FA0CF425FA06F73C43976805FA0CF555
:1063B00027FA06F8D26807FA0CFCF24045EA08050D
:1063C0004CEA0206A4FB034CA5FB0352A6FB0363A5
:1063D0001D449D4234BF012600261319334416B1D3
:1063E000934202D903E0934201D2012200E000224D
:1063F000624402F1200C9206DC0C42EA443200EEC8
:10640000102A5B03DFED210AF8EEC01A00EE103A05
:106410004FEA9C1C11F0004FB8EE400AC0F800C0D3
:1064200020EE201A00EE105ADFED190AB8EE400AED
:1064300020EE200A71EE810A70EE800A10EE902A9A
:1064400002F500626FF30B0200EE902A70EEE11A83
:1064500031EEC11ADFED101A30EE411A9FED0D0A30
:1064600020EE800A01EE210A9FED0C1A00EE810A4F
:1064700004BFBDE8F0017047CCF180510160BDE878
:10648000F001B1EE400A70473051000000000036C4
:106490000000802C22AAFD29DB0FC92F0000C92F84
:1064A00002E008C8121F08C1002AFAD170477047DD
:1064B000002001E001C1121F002AFBD1704700003B
:1064C00001490860704700000C0200202DE9FF5FC1
:1064D00082B00021DDE90430020DDDF840B0034355
:1064E00018D044F61050A2F2FF324243151411980E
:1064F00001281FD0A5EB0B00401C5FEA000A4FF0FB
:1065000000064E4FDFF83891B046504615D5CAF117
:10651000000413E0119801244AA3012801D16FEA75
:106520000B010298119AC0E90031C0E9024206B09D
:10653000BDE8F09FCBF10000DFE704460021404AB0
:10654000491842EB0450CDE9001012E0E00707D0F3
:1065500032463B4640464946FDF70AFE804689469C
:1065600032463B4610461946FDF702FE06460F46E8
:106570006410002CEAD1DDE90401DDE90023BAF161
:10658000000F06DAFDF7F4FD42464B46FDF7F0FD3D
:1065900005E0FEF73BF842464B46FEF737F8044667
:1065A0000E460022284BFEF7DFF803D84FF0FF30ED
:1065B000014607E00022254B20463146FDF77FFFCC
:1065C000FEF793F8102409E0002C0ADB0A220023CE
:1065D000FDF792FE039B30321A55641E50EA010209
:1065E000F2D1641C039AC4F111031444119A012AD4
:1065F00003D0012208430DD10AE0084304D0002053
:106600004FF0110B119072E7A3EB0B056D1E0DE01F
:106610005B4504DD4FF0000205F1010504E003DAFB
:106620004FF00002A5F10105002AECD00298119963
:10663000C0E90231C0E9004579E7000000001440DC
:106640000000F03F300000000000F0430000E03F99
:106650002DE9FF4F95B09B468946064600250FE27F
:10666000252877D100242746F84A0121059400E027
:10667000044316F8013F203B01FA03F01042F7D122
:1066800030782A2811D06FF02F033078A0F1300233
:10669000092A16D8059A44F0020402EB820203EBA1
:1066A00042021044761C0590EFE759F8042B05923E
:1066B000002A03DA504244F40054059044F00204E6
:1066C000761C30782E2816D116F8010F44F00404F9
:1066D0002A280DD06FF02F023078A0F13003092B5B
:1066E00009D807EB870302EB4303C718761CF3E7CF
:1066F00059F8047B761C30786C280FD006DC4C28C7
:1067000017D068280DD06A2814D104E0742810D05E
:106710007A280FD10DE044F400140AE044F4801408
:1067200001E044F440147278824202D104F58014EE
:10673000761C761C307866280BD013DC582877D06E
:1067400009DC002875D04528F6D04628F4D0472823
:106750001AD19DE118E0632835D0642879D06528E6
:1067600012D195E1702873D008DC6728F1D0692830
:106770006FD06E280DD06F2806D1B5E073282CD0CD
:10678000752875D0782874D05A46179990476D1C93
:1067900075E1C4F30250022809D003280DD0D9F8BE
:1067A000001004280DD00D6009F1040967E1D9F843
:1067B0000010EA17C1E90052F6E7D9F800100D8081
:1067C000F2E70D70F0E719F8041B8DF800100020B7
:1067D0008DF80100EA46012003E059F804AB4FF0C0
:1067E000FF3061074FF0000102D40DE008F1010114
:1067F0008846B9420FDA8045F8DB1AF808100029FC
:10680000F4D108E008F1010188468142FADB1AF868
:1068100008100029F6D105985B46A0EB0807214631
:106820003846179A00F094FA284400EB080507E070
:106830004DE029E10DE01AF8010B5A4617999047EF
:10684000B8F10108F7D25B4621463846179A13E1A2
:1068500042E00A220092C4F302524FF0000A022AD8
:1068600008D059F804CB032A4FEAEC710AD00DE0A6
:1068700029E02AE009F1070121F00702F2E802C14C
:10688000914609E00FFA8CFC4FEAEC71042A03D11F
:106890004FFA8CFC4FEAEC71002907DA0A46002116
:1068A000DCF1000C61EB02012D2202E0220504D58F
:1068B0002B228DF80420012203E0E20701D02022E0
:1068C000F7E7904659E00A2102E010220DE010217E
:1068D0004FF0000A00910BE010224FF0000A44F044
:1068E00004040827009203E008224FF0000A0092F7
:1068F000C4F30252022A05D059F804CB0021032A1E
:1069000008D009E009F1070121F00702F2E802C10D
:10691000914605E01FFA8CFC042A01D10CF0FF0C13
:106920004FF00008220728D5702806D0009B83F07E
:10693000100353EA0A0305D00EE040228DF804202C
:10694000012208E05CEA010206D030228DF8042022
:106950008DF8050002229046009B83F0080353EA5D
:106960000A030AD15CEA010201D1620705D530228F
:106970008DF804204FF001087F1E582804D034A061
:1069800003900EA802900DE036A0F9E7534660464A
:10699000009AFDF7B1FC84460398825C0298401E81
:1069A000029002705CEA0100F0D1029806A9081A70
:1069B00000F1200A600702D524F4803400E00127AA
:1069C000574502DDA7EB0A0000E0002000EB0A01BA
:1069D000009005984144401A0590E00306D45B46B8
:1069E0002146179A059800F0B3F90544002706E000
:1069F00001A85A46C05D179990476D1C7F1C4745FA
:106A0000F6DBE0030CD55B462146179A059800F0AB
:106A10009FF9054404E030205A46179990476D1CB1
:106A20000099481E00900029F5DC08E002980299C0
:106A30005A460078491C0291179990476D1CBAF18B
:106A40000001AAF1010AF1DC65E10000092801005A
:106A500030313233343536373839616263646566D4
:106A60000000000030313233343536373839414296
:106A7000434445460000000000F058F90544761CE8
:106A8000307800287FF4ECAD19B02846BDE8F08FCF
:106A9000620700D4062709F1070222F0070CFCE880
:106AA0000223E14603F000485FEA080C02D00FF22F
:106AB000702C0DE05FEA045C02D50FF2682C07E051
:106AC0005FEAC47C02D00FF2602C01E0AFF2700CE0
:106AD0004FF0FF3823F00043CDF850C065280CD0AC
:106AE00006DC452809D046281DD047283DD13DE089
:106AF000662818D067287ED138E00021112F01DBED
:106B0000112000E0781CCDE9000106A90EA8FFF7CE
:106B1000DDFCDDE90F010E9A03910021009207F1DF
:106B2000010A04914DE04FF000400097CDE90110BB
:106B300006A90EA8FFF7CAFCDDE90F0203920E9B1F
:106B400011990022DDF80CA00093049211B9791C70
:106B500000EB010AB7EB0A0004D4C0F1FF3007F1E3
:106B6000010A0490AAEB0700019044E0012F00DA2B
:106B700001270021112F01DD112000E03846CDE969
:106B8000000106A90EA8FFF7A1FCDDE90F010E9A8E
:106B90000391002104910092BA4621070CD4039975
:106BA000514500DA8A46BAF1010F05DD009AAAF1D3
:106BB0000101515C302908D0B84202DA10F1040F0B
:106BC00006DA0121CDE9011015E0AAF10101E9E79A
:106BD000002805DC049901440491AAEB000102E0BD
:106BE000411C514500DD8A460499401A401C019021
:106BF0004FF000400290200704D40198504501DB7B
:106C0000CDF8048000208DF84F0002980DF14F0759
:106C1000B0F1004F25D02B200E9002984FF00208C3
:106C200000280CDA404202902D200E9007E00A2145
:106C30000298FDF74BFB3031029007F8011DB8F1C7
:106C40000001A8F10108F2DC02980028EFD1791EBA
:106C50000E980870307800F0200040F0450007F8EA
:106C6000020D12A8C01B00F107081498007800B1AB
:106C7000012000EB0A01019801EBE0710598414405
:106C8000401A401E0590E00306D45B462146179A41
:106C9000059800F05DF805441498007818B15A463C
:106CA000179990476D1CE00324D55B462146179A3F
:106CB000059800F04DF805441CE00498002807DB17
:106CC000DDE90301884203DD0098405C179901E08B
:106CD000179930205A469047049805F10105401C49
:106CE00004900198401E019004D12E205A46179915
:106CF00090476D1CBAF10001AAF1010ADDDC05E044
:106D000017F8010B5A46179990476D1CB8F100010E
:106D1000A8F10108F4DC5B462146179A0598ABE61A
:106D20002D0000002B000000200000002DE9F041A4
:106D3000044600251E461746880404D405E039465B
:106D40002020B0476D1C641EF9D52846BDE8F081AF
:106D50002DE9F041044600251E469046C80301D5A2
:106D6000302700E02027880404D505E04146384656
:106D7000B0476D1C641EF9D52846BDE8F0810000BF
:106D800070B505463C480078B0B100240FE0002003
:106D90003A4941F8240005F1140050F8240038491C
:106DA00041F82400002037490880601CC4B2032C3D
:106DB000EDDB002030490870002422E0304850F814
:106DC000241005F1140050F824000E1A301E01DBC7
:106DD000014600E0414232290BDA284850F82410DD
:106DE00005F1080050F824000844244941F8240023
:106DF00005E0012020490870002022490880601C1D
:106E0000C4B2032CDADB1F480088401C80B21D4945
:106E10000880FF282FDD002420E0184850F82400C7
:106E20001849098890FBF1F001B205F1200020F823
:106E30001410022C09D130F8140013490988401AA3
:106E400001B205F1200020F8141005F1200030F8FF
:106E500014100E4820F81410601CC4B2032CDCDBA4
:106E6000002085F82C000120034908700020084903
:106E7000087000F031FE70BD5E0000206C0E002036
:106E8000780E00205C0000205000002058040020F4
:106E90000500002010B560212948FDF75EF929485A
:106EA000274908602848486008688047002416E0A1
:106EB000C4EBC401254A02EB81004FF47A71B3EEB2
:106EC0000E0A00F0D9FD04EB4401214A02EB8100D7
:106ED0009FED200AF02103F005FC601CC4B2032CD6
:106EE000E6DB4FF480501C4908809FED1C0A1C48CB
:106EF00080ED000A1B4800681B49884216D1002417
:106F000011E01848001D30F814100D48203020F80A
:106F1000141014480A3030F814100948263020F8AC
:106F20001410601CC4B2032CEBDB08E00E480D49C2
:106F300008600120024981F82D0081F82C0010BD65
:106F40007C0D0020959A00081D9B0008000E002073
:106F5000DC0D00206F12833A50000020797D8B3ABF
:106F60005400002054040020A5A55A5A10B53E48EC
:106F700000F11401426808309047002871D00422C3
:106F800039490831084600F082FB042236491431A1
:106F9000084600F07CFB344890F82D0010B13248D0
:106FA00001F0D8FB304890F82C0010B12E48FFF7C4
:106FB000E7FE002418E02C48083050F82410183060
:106FC00030F91400091A2848303040F824101C38D1
:106FD00050F82410123030F91400091A22483C30BD
:106FE00040F82410601CC4B2032CE4DB002433E01E
:106FF0001D49303151F8241000EE901AF8EEE00AE5
:10700000B0EE600AC4EBC401184A02EB810000F044
:107010007DFCBDEEC00A10EE101A1348483040F84F
:107020002410A0F10C0151F8241000EE901AF8EE93
:10703000E00AB0EE600A04EB44010D4A02EB810065
:1070400003F036FBBDEEC00A10EE100A06495431BB
:1070500041F82400601CC4B2032CC9DB012010BD20
:10706000FFE70020FBE700007C0D0020000E002061
:10707000DC0D002010B52DED048BB0EE408AB5EE8E
:10708000C08AF1EE10FA02DDB0EE480A01E0B1EE7E
:10709000480AF0EE408AF7EE000A70EEE80AB0EE19
:1070A000600AFFF70DF9DFED0F0A9FED0F1A41EEB1
:1070B000280A9FED0E1A08EEA01ADFED0D0A48EE21
:1070C000810A20EE209AB5EEC08AF1EE10FA06D2BF
:1070D0009FED080A30EE490ABDEC048B10BDB0EEFE
:1070E000490AF9E72716983D306E99BC843459BE99
:1070F000A40DC93FDB0F49402DE9F0412DED028B76
:1071000000F0AEFB00287DD08D480078C0F3C000B1
:1071100048B98B480078C0F3400030B988480078FF
:10712000C0F3800008B9022600E00126002730E005
:1071300084480088401C8449088008460088072845
:1071400004D1002008800120804908808048006820
:1071500000F06AFA7F497B4A128841F8220008460B
:107160007849098850F821007B49096808447A4920
:10717000086078487449098850F821007649096800
:10718000081A75490860704800886E490880781CA4
:10719000C7B2B742CCDB6D48008868B16E4890ED4D
:1071A000000AB8EEC00AF1EE080A80EE201ABDEE21
:1071B000C10A10EE104A01E065480468674800887B
:1071C000002809DC5E480078C0F34000F0BB5C4852
:1071D0000078C0F38000C8BB60480088322804D122
:1071E00004EB840040005E4908605D4800680A21A5
:1071F00090FBF1F05A490968081A59490860084695
:10720000006800E097E020440860084690ED000A1E
:10721000F8EEC00AB2EE041A80EE810ADFED510AE0
:1072200080EE201AB0EE418ADFED4F0AB0EE480A38
:10723000FEF74CFCF7EE000A30EEC00ADFED4B0A19
:1072400020EE200ABDEEC00A494800E014E080EDBF
:10725000000A9FED480A484880ED000A9FED450A64
:10726000464880ED000A3D480088002804DD3B4880
:107270000088401E3949088000EE104AB8EEC00A66
:10728000DFED380A80EE201AB0EE418ADFED360AD3
:10729000B0EE480AFEF71AFCF7EE000A30EEC00A1C
:1072A000DFED320A20EE200ABDEEC00A10EE105AC1
:1072B0002F4800682D1A324890ED000AB8EEC00A37
:1072C000DFED300A60EE200A00EE105AB8EEC00A78
:1072D0009FED2D1A40EE010ABDEEE00A80ED000A96
:1072E0002A4890ED000AB8EEC00AF0EE080A20EE37
:1072F000200AB1EE001AC0EE010A214800682449B4
:107300000968401AC00000EE100AB8EEC00A30EE5C
:10731000800ABDEEC00A1D4880ED000A40F6B83272
:107320001C49008800B200F0FFFB184908601448AF
:10733000006817490860BDEC028BBDE8F0810000D1
:10734000FC0100204C0100204E01002050010020D3
:107350009C0000201C0F002054010020B6000020DB
:107360005801002080E6C547B1DC423E041B294C91
:10737000B800002000000000D4000020D800002049
:10738000BC0000203333333F9A99993EC40000205B
:10739000C000002030F8FFFF10B5FFF7ADFE054834
:1073A00000780A2804DB00200249087000F0EEFC97
:1073B00010BD0000E80000202DE9F0478748007864
:1073C00000F0010000287AD08448007820F0010005
:1073D0008249087000204870814884780578467892
:1073E000C77890F8048090F80590A0004FF47A7266
:1073F000002100F099FB0446803D803E803FA8F1CB
:107400003F08A9F13F091C21284600F02FF905B2D9
:107410001C21304600F02AF906B22521384600F03A
:1074200025F907B240F28A2084421CDD6B480078BF
:1074300020F00800083069490870A4F28A20800012
:1074400000B2684908800846B0F90000B0F5FA6F4C
:1074500002DD4FF4FA6008806048007820F00400F4
:107460005E4908701CE0B4F5BB7F16DC5B48007811
:1074700020F00800083059490870A4F27710800005
:1074800000B2584908800846B0F9000010F5FA6FBC
:1074900006DA4FF63000088002E0002051490880EB
:1074A0004E480078C0F30010D0B116F1320F14DC52
:1074B000322D12DB4C480078322801DA11E08BE0E3
:1074C0004648007820F010004449087001204749E0
:1074D00081F82D0081F82C0002E00020424908705C
:1074E00000BF3F48007A00F0010080B340480078B8
:1074F00060B300203E49087038480078C0F340006F
:1075000090B93648007820F00200801C334908709A
:107510000846007820F00400001D08700846007836
:1075200020F01000087016E03248B0F9060040F272
:10753000D66188420FDC2948007820F002002749F4
:1075400008700846007820F00400087003E0FFE7A8
:107550000120274908702248007A00F0020050B14B
:107560001E48007820F002001C4908700846007888
:1075700020F0040008704FF4FA62511004F57A709C
:1075800000B200F0D1FA1B49C8804FF4FA725142A0
:10759000284600F0C9FA174908804FF4FA725142A0
:1075A000304600F0C1FA13494880A7EB870108B2C2
:1075B0004FF4FA72514200F0B7FA0E49888008EB96
:1075C0008800400000B20C49088009EB89004000A7
:1075D00000B2488000208880BDE8F087FC010020D0
:1075E000410F0020F8010020E80100207C0D002060
:1075F000FA010020EA010020F201002070B50446E3
:107600000D46FDF7A5F92846FDF75CF92146284609
:10761000FDF7AAF9042803D0FDF74AF9012070BD4F
:10762000FDF746F90020FAE770B504460C480088DB
:10763000401C85B2052D03D10025012009490870A1
:1076400009480749098840F8214005480580054850
:10765000007818B1044803F059F870BD2046FCE7E3
:10766000480100204A010020080F0020021E01DB13
:10767000134600E053428B4201DA002006E0002866
:1076800001DD401A02E0002800DA0844704770B5B6
:107690000C46154621686268A368092D06D2DFE80A
:1076A00005F005060A0F151A20252B0000BF016002
:1076B0004260836027E002604E424660836022E0C1
:1076C0004E4206605642466083601CE056420660A9
:1076D0004160836017E04E42066042605E42866011
:1076E00011E0026041605E4286600CE0016056423B
:1076F00046605E42866006E0564206604E42466044
:107700005E42866000BF00BF70BD0000B0EE401A50
:10771000F5EEC00AF1EE10FA02DDF0EE602A01E0AB
:10772000F1EE602AF0EE621AB5EEC01AF1EE10FA30
:1077300002DDF0EE412A01E0F1EE412AB0EE622ACC
:10774000F4EEC21AF1EE10FA02DDF0EE612A01E069
:10775000F0EE422AB0EE620AB5EEC00AF1EE10FA7F
:107760000ED0F4EEC21AF1EE10FA02D2F0EE612A57
:1077700001E0F0EE422A82EE803AB0EE430A03E0E6
:10778000DFED222AB0EE620A9FED213ADFED212AD9
:1077900012EE803ADFED202A53EE002A9FED1F3AC9
:1077A00012EE803ADFED1E2A53EE002AF1EE623A25
:1077B000DFED1C2A9FED1C3A43EE002AB7EE003A9B
:1077C00002EE803AC3EE832AB0EE620AB4EEE12AFA
:1077D000F1EE10FA05DDDFED152A72EEC02AB0EEEB
:1077E000620AF5EEC00AF1EE10FA05D2DFED102ABA
:1077F00072EEC02AB0EE620AB5EEC01AF1EE10FACF
:1078000003D2F1EE402AB0EE620A70470000000099
:10781000E3B59E3E39094E3D88FA163E45FE7F3F50
:10782000A7DFA83469A2163E99FB243FDB0FC93FAE
:10783000DB0F494010B5074803F09CFA18B101204E
:107840000549087002E00020034908700020034940
:10785000086010BDB40E0020A40000209C00002091
:1078600010B5002422480078012801D0002010BD66
:107870002048007820490978884236DB00201D49DD
:1078800008701E48007810B1012822D10DE01C4973
:10789000886880471A49C8688047012017490870DE
:1078A00017488078144908701EE015490869804718
:1078B0001349486880471248124942691248904764
:1078C00000200E4908700E4800780B49087001240A
:1078D0000AE00B49486880470020084908700848BA
:1078E00000780549087000BF00BF2046BFE70000D0
:1078F000A400002098000020A5000020A600002081
:10790000B40E0020A00000209C000020F0EE400AF1
:1079100090ED051AD0ED001A01EEA01AB0EE410A62
:1079200090ED011A21EE201AD0ED031A01EEC01AD3
:10793000D0ED061A31EE211A80ED051A90ED021AEB
:1079400021EE201AD0ED041A01EEC01A80ED061ABD
:107950007047000070B52DED0E8B04460D46B0EE5D
:1079600040CAF0EE60CA164600EE105AB8EE400A61
:10797000DFED3E0A20EE200AF7EE000A80EE801AC4
:10798000B0EE41DA9FED3A0A2CEE000AC0EE0D0A85
:10799000F0EE60DAB0EE6D0AFEF7CAFBB0EE40EA38
:1079A000B0EE6D0AFDF7C6FFF0EE408AB0EE000AB9
:1079B0002CEE800ACEEE000AB0EE609A16B1012ECF
:1079C00021D000BFB7EE000A30EE680AF0EE000AE0
:1079D000C0EE209AB7EE000A30EE68AAB7EE000AB1
:1079E00030EE680AF0EE000AC0EE20AAB7EE000AF8
:1079F00039EE008AB8EE000A28EE80BAB7EE000A27
:107A000070EE49BA14E0F7EE009AB8EE000A28EEDC
:107A100080AAF7EE00AAB7EE000A39EE008AB8EEA7
:107A2000000A28EE80BAB7EE000A70EE49BA00BF2D
:107A300000BF89EE880A84ED000A8AEE080A84ED08
:107A4000010A8AEE880A84ED020A8BEE080A84EDA8
:107A5000030A8BEE880A84ED040A9FED060A84ED82
:107A6000060A84ED050ABDEC0E8B70BDBD37863568
:107A7000DB0FC9400000000070B52DED028B0446FD
:107A8000B0EE408A0D46B0EE000AFEF719FCF7EEA4
:107A9000000A80EE801AF0EE418A0022F0EE680AB9
:107AA0002946B0EE480A2046FFF754FFBDEC028B92
:107AB00070BD000000B5064B002205E005495018D6
:107AC000FCF728FF01C3121D102AF7D300BD0000E8
:107AD000540400201038000870B5104DFCF738FF32
:107AE0000F48FCF7EFFE0F490D48FCF73DFF00245F
:107AF0000DE0A20855F82210094A1032A018FCF730
:107B000033FF042802D0FCF7D3FE02E0241D102C22
:107B1000EFD300BFFCF7CCFE70BD00005404002082
:107B20000038000878563412884200DA084690423D
:107B300000DD10467047B4EEE00AF1EE10FA01D213
:107B4000B0EE600AB4EEC10AF1EE10FA01DDB0EE5B
:107B5000410A704710B51C210D48FCF7FEFA4FF49E
:107B6000E1300B4988610B4808604FF4857008814B
:107B70000948C86080210648818280690749886079
:107B8000034808600C30486000F05AFE10BD000049
:107B9000100200202C02002036030020640D00207B
:107BA00001780E4A11704178517081789170C178D6
:107BB000D170017911714179517181799171C179D6
:107BC000D171017A1172417A51720549097821F017
:107BD0000101491C024A117070470000410F00204A
:107BE000FC0100200021044A118000BF02490988DD
:107BF0008142FBDB704700000A00002070B50025C1
:107C00000CE00A20FFF7EEFF0D21EC2003F018F83E
:107C10000446102C01D1012070BD6D1C052DF0DB38
:107C20000020F9E710B52DED068B01F089FE044622
:107C300014490988611A88B2FCF70CFB41EC1A0B55
:107C40009FED110B53EC102BFCF792FA41EC190B42
:107C5000FCF720FB08EE100A9FED0D0AB4EEC08A77
:107C6000F1EE10FA0BDB07480480FFF77FF901F013
:107C7000E9F8B0EE480A02F073FA01F077FEBDECC5
:107C8000068B10BDFE0100208DEDB5A0F7C6B03EFD
:107C90006F12833A70B504460D46E0B202F0B6FEAC
:107CA00003F03EFB204670BD10B52DED0A8BB0EE03
:107CB00040BAF0EE60BAB0EE41CA0446F6EE000AF1
:107CC0006BEE200AB0EE600AFDF734FEB0EE408A9B
:107CD000F6EE000A6BEEA00AB0EE600AFDF72AFE8F
:107CE000F0EE408AF6EE000A6CEE200AB0EE600A72
:107CF000FDF720FEB0EE409AF6EE000A6BEE200A89
:107D0000B0EE600AFEF714FAF0EE409AF6EE000AC2
:107D10006BEEA00AB0EE600AFEF70AFAB0EE40AAD7
:107D2000F6EE000A6CEE200AB0EE600AFEF700FAEA
:107D3000F0EE40AA28EE280A20EE090A69EE8A0A27
:107D400000EEAA0A84ED000A29EEA80A20EE090A2C
:107D500068EE0A0A00EEEA0A84ED010A28EE0A0A31
:107D600020EE090A69EEA80A00EEAA0A84ED020ACA
:107D700028EE280A20EE2A0A69EE8A0A00EEC90ACD
:107D800084ED030ABDEC0A8B10BD00002DE9F0471D
:107D90002DED088B9FEDFD0AF0EE409AFC4AB2F9FA
:107DA00002A0BAF1000F01DB524601E0CAF1000265
:107DB00011B2F74AB2F90080B8F1000F01DB424678
:107DC00001E0C8F1000210B201F0B2FDF1490880F3
:107DD00001F0B6FD0646F0490988711A88B2FCF731
:107DE00039FA41EC1B0B9FEDED0B53EC102BFCF71C
:107DF000BFF941EC1A0BFCF74DFA08EE100AE64801
:107E0000066000246DE0E748008810B90120E549CC
:107E10000880022C0FD1E44890ED000AE34800EB03
:107E2000840080ED000AE24890ED000AE14800EB92
:107E3000840080ED000AE04850F82400D949098800
:107E400090FBF1F000EE100AB8EEC09A9FEDCF0A59
:107E500029EE000AD948D0ED000A60EE208AB6EE7D
:107E6000000A28EE800AD0ED000A20EE200ACF4852
:107E700000EB8400D0ED000AD04890ED001A00EE2F
:107E8000810ACC4800EB8400D0ED000A30EE200AD5
:107E9000C84800EB840080ED000AC44800EB840071
:107EA00090ED000A30EE280AC04800EB840080ED17
:107EB000000A0020C04941F82400022C0FD1BD481F
:107EC00000EB840090ED000AB94880ED000AB74845
:107ED00000EB840090ED000AB34880ED000A601CBE
:107EE000C4B2032C8FDB0020AE4908809FEDB40A9A
:107EF000B24880ED000AAE4890ED000ADFEDB10A0D
:107F000020EE200AB048D0ED000AF8EEE00A9FED1E
:107F1000AF1A00EE810AA64880ED000A90ED000A33
:107F2000BDEEC00AAA4880ED000A9F4890ED000A05
:107F3000DFEDA80A20EE200AA748D0ED000AF8EEEF
:107F4000E00A9FEDA61A00EE810A974880ED000A2C
:107F50009FEDA31ADFEDA30A90ED000AFFF7EBFDFA
:107F6000914880ED000AA0480078C0F3400080BB33
:107F70009D48007820F008009B49087094480068EC
:107F80009A4908609FED8E0A994880ED000A00200A
:107F9000984908609FED8A0A834880ED000A9FEDAA
:107FA000880A824880ED000A9FED850A80ED010A6B
:107FB0009FED830A80ED020A9FED810A7D4880EDE6
:107FC000000A9FED7F0A80ED010A9FED7D0A80ED9A
:107FD000020A754890ED000ABDEEC00A10EE100AC4
:107FE0000FFA80F96B48B0F90000B0F5FA5F72DA69
:107FF0007D480078C0F3C000A8BB9FED7F0A7F4892
:1080000080ED000A9FED7E0A7E4880ED000A9FED1C
:108010007E0A7E4880ED000AB0EE080A7C4880EDBA
:10802000000A724909886A4A1288891A08B241F21C
:1080300088325142FFF778FD05467049D1ED000ABC
:1080400000EE105AB8EEC00A20EE800ABDEEC00A5B
:1080500010EE101A08B240F6B8325142FFF764FD34
:108060006C490880DEE0FFE7B6EE000A654880ED67
:10807000000AB6EE000A654880ED000AB7EE000A75
:10808000634880ED000A6448008800285BD161489D
:10809000B0F90000B0F5487F04DD4FF448705D4949
:1080A000088055E05B48B0F9000010F5487F04DA1D
:1080B0004FF6E040574908804AE05649B1F90000C0
:1080C000002801DB014600E04142C82904DA002013
:1080D000504908803CE017E14E48B0F900004E4995
:1080E000B1F90010884212DD4A4800884B3800B2CE
:1080F000484908800846B0F900004749B1F9001026
:10810000884204DA4448B0F90000424908804148F6
:10811000B0F900004049B1F90010884218DA3D4832
:1081200000884B3000B23B4908800846B0F9000097
:108130003949B1F9001088420ADD3748B0F900002A
:108140003449088004E03448B0F90000314908801F
:1081500030480088C8B91C4890ED000AB8EEC00A43
:10816000134880ED000A90ED000ABDEEC00A1F48DA
:1081700080ED000A0E4890ED000ABDEEC00A1448DA
:1081800080ED000A1848007848E04BE09A3A194020
:1081900074000020B40000205C0100208DEDB5A02B
:1081A000F7C6B03EC8000020D4000020F00E00202A
:1081B000D8000020FC0E0020E40E0020CC0000209F
:1081C000000000003D0A773FBC000020305C0F3DFE
:1081D000DC00002008AC7C3FC4000020F4FD543CCF
:1081E00000800945008009C5FC010020E000002056
:1081F00060010020E40000203333333FEC00002016
:108200009A99993FF00000206666E63FF40000204E
:10821000F8000020EA000020F801002020F008000B
:108220004A4908704A48B0F90000A0EB09054949DD
:10823000D1ED000A00EE105AB8EEC00A20EE800A16
:10824000BDEEC00A10EE101A08B24FF4FA72514295
:10825000FFF76AFC404908604048D0ED000A00EE94
:10826000105AB8EEC00A60EE800A3D4890ED000A50
:1082700000EE880A80ED000A90ED000ADFED390A71
:10828000B4EEE00AF1EE10FA03DD9FED360A80ED60
:10829000000A334890ED000ADFED330AB4EEE00A3D
:1082A000F1EE10FA03D29FED300A80ED000A2A4861
:1082B00090ED000AB8EEC00A2948D0ED000A30EE71
:1082C000200ABDEEC00A244880ED000A2748006855
:1082D0002F1A2648056000EE107AB8EEC00A24492D
:1082E000D1ED000A20EE200ABDEEC00A10EE101AF1
:1082F00008B24FF4C8725142FFF716FC16490968DC
:108300000844154908601CE01048007820F002007D
:108310000E4908700846007820F0080008701548DB
:108320000068154908601FED5A0A0D4880ED000AE3
:108330000020094908601FED5E0A104880ED000A20
:108340000025BDEC088BBDE8F0870000FC01002093
:10835000EA000020F0000020E4000020F4000020EB
:108360006001002000009643000096C364010020D5
:10837000F8000020DC000020E0000020D4000020F5
:10838000F0B52DED028B85B09FEDD90AB0EE408A95
:108390000024A6E19FEDD70A8DED040AB7EE000A8E
:1083A0008DED030A9FEDD40A8DED020A9FEDD00AF0
:1083B0008DED010AD1480078C0F3400040BB9FED2D
:1083C000D00AD04800EB840080ED000A9FEDCC0A73
:1083D000CD4800EB840080ED000A9FEDC90ACB4830
:1083E00000EB840080ED000A9FEDC50AC84800EB51
:1083F000840080ED000A9FEDC20AC64800EB8400AD
:1084000080ED000A0020C4490855C44941F8240001
:10841000C34830F8140038B9C148808820B9C14831
:1084200030F8140064284FDA0020BC4941F82400D9
:108430009FEDB30AB44800EB840080ED000A9FED85
:10844000B00AB04800EB840080ED000A9FEDAC0A52
:10845000AF4800EB840080ED000A9FEDA90AAB480D
:1084600000EB840080ED000A9FEDA50AA64800EB12
:10847000840080ED000A9FEDA20AAB4800EB840067
:1084800080ED000A9FED9E0AA24800EB840080ED7B
:10849000000A0020A54941F82400A54941F824001C
:1084A000A44941F824009E4830F8140020B100206F
:1084B0009C4921F814005AE09A4830F81400401CF6
:1084C000984921F8140052E0904800EB840090EDA8
:1084D000000ADFED880A20EE200A8A4800EB8400BB
:1084E000D0ED000A9FED941A00EE810A874800EB58
:1084F000840080ED000A864800EB840090ED000ABD
:10850000DFED8E0A20EE200A7F4800EB8400D0EDDC
:10851000000A9FED8B1A00EE810A7D4800EB840073
:1085200080ED000A7A4800EB840090ED000A7E4856
:1085300000EB840080ED000A744901EB840191EDA9
:10854000000ADDED040AF1EE600A20EE200ABDEE1D
:10855000C00A10EE101A08B240F6B8325142FFF7C6
:10856000E3FA6E4941F824000020764908556B482B
:1085700050F8240000EE100AB8EEC00A6A4800EB7A
:108580008400D0ED000A30EE600ABDEEC00A10EEA5
:10859000105ADDED030A00EE105AB8EEC00A20EEC4
:1085A000800ABDEEC00A10EE101A08B240F6C412DE
:1085B0005142FFF7B9FA644941F82400554800EBED
:1085C0008400D0ED000A9DED021A00EE105AB8EEBC
:1085D000C00A21EE000A40EE080A4E4800EB840073
:1085E000C0ED000A4B4800EB840090ED000ADFED7F
:1085F000570AB4EEE00AF1EE10FA06DD9FED530AD9
:10860000444800EB840080ED000A424800EB8400FF
:1086100090ED000ADFED4E0AB4EEE00AF1EE10FA3A
:1086200006D29FED4B0A3B4800EB840080ED000A28
:10863000454850F8240000EE100AB8EEC00A35484C
:1086400000EB8400D0ED000A30EE200ABDEEC00A37
:1086500010EE100A3C4941F82400B5EEC08AF1EE54
:1086600010FA0ED0314850F82400281A00EE100AF3
:10867000B8EEC00AC0EE080ABDEEE00A10EE107AAD
:1086800000E000272A4850F824002A4951F8241015
:108690000844C619264850F82400264941F8240009
:1086A000234840F8247000EE106AB8EEC00ADDEDF1
:1086B000010A20EE200ABDEEC00A10EE101A08B220
:1086C00040F2DC525142FFF72FFA1F4951F82410B3
:1086D00008441D4941F82400144840F82450601C07
:1086E00084B2022CFFF656AE05B0BDEC028BF0BD95
:1086F0000AD7233C3333333F8FC2F53DFC010020C2
:10870000000000008001002088010020FC0E0020F5
:10871000F00E0020CC010020A0010020B4010020B8
:10872000EA010020E4010020BC010020C401002077
:10873000D4010020DC0100209A99993E1F856B3FEF
:108740000AD7A33DA2010020A40100200000FA44A2
:108750000000FAC470B5054634480078B0B1002472
:108760000FE00020324941F8240005F1140050F8D0
:108770002400304941F8240000202F490880601C63
:10878000C4B2032CEDDB002028490870002422E04D
:10879000284850F8241005F1140050F824000E1A4F
:1087A000301E01DB014600E0414232290BDA20484D
:1087B00050F8241005F1140050F8240008441C4916
:1087C00041F8240005E001201849087000201A49EA
:1087D0000880601CC4B2032CDADB17480088401CF8
:1087E00080B215490880FF281EDD002412E01048E1
:1087F00050F824001049098890FBF1F001B205F10E
:10880000260020F8141030F814100C4820F814102A
:10881000601CC4B2032CEADB002085F82D00012087
:1088200002490870FFF758F970BD00005A00002097
:10883000540E0020600E0020580000205E0400202E
:1088400000B58BB08020FCF791F94FF48040FCF725
:108850009DF905A8FCF745F94FF40070059002203A
:10886000069005200A9005A91A48FCF7F5F84FF480
:108870008060059005200A9005A91648FCF7ECF8E1
:108880001548806801900020ADF80800ADF80A0096
:10889000ADF80C00ADF810000C20ADF80E0001A9E9
:1088A0000E48FCF789FE24208DF8000000208DF88A
:1088B000020001208DF803006846FCF71FF940F222
:1088C00025510648FCF7AFFE0448FCF75DFE0BB0EF
:1088D00000BD000000340240640D0020003801405B
:1088E00000B587B04FF48070FCF740F901A8FCF7A1
:1088F000F8F80820019001200290059001A9134882
:10890000FCF7AAF84FF48070FCF730F94FF40050F0
:10891000019001A90D48FCF79FF84FF48070FCF717
:1089200025F94FF48040019001A90848FCF794F81C
:108930004FF48070FCF71AF94FF48070019001A990
:108940000248FCF789F807B000BD0000003802407B
:1089500000B58BB04FF48070FCF708F94FF400308D
:10896000FCF714F905A8FCF7BCF8102005900220CC
:10897000069007200A9005A91948FCF76DF82020F9
:10898000059008200A9005A91548FCF765F81548D8
:10899000806801900020ADF80800ADF80A00ADF83D
:1089A0000C00ADF810000C20ADF80E0001A90E4827
:1089B000FCF702FE26208DF8000000208DF8020052
:1089C00001208DF803006846FCF798F840F2255125
:1089D0000548FCF728FE0448FCF7D6FD0BB000BDA7
:1089E00000380240700D00200050014000B587B0F3
:1089F0004FF48070FCF7BAF801A8FCF772F8402039
:108A0000019001200290059001A90748FCF724F885
:108A10004FF48070FCF7AAF88020019001A9024869
:108A2000FCF71AF807B000BD0038024010B5072265
:108A300000210248FBF7EEFF10BD000000380240A5
:108A400010B5072201210248FBF7E4FF10BD00002A
:108A50000038024000B58FB00120FCF797F809A854
:108A6000FCF73FF84020099002200A900D90032067
:108A70000E9009A93448FBF7EFFF802009900320EE
:108A80000E9009A93048FBF7E7FF01200990032069
:108A90000E9009A92D48FBF7DFFF02200990032063
:108AA0000E9009A92948FBF7D7FF0220FCF766F8CA
:108AB00001A8FCF796FA40F2E730ADF80800032071
:108AC000ADF804000020ADF80A00ADF8060001A9D9
:108AD0001F48FCF71DFA05A8FCF746FC7020ADF80E
:108AE00014000120ADF816000420ADF81800002095
:108AF000ADF81A000220ADF81C000820ADF81E00E9
:108B00004001ADF820000020ADF8220005A9104872
:108B1000FCF7D4FA0020ADF81A0005A90C48FCF7C0
:108B200017FB0020ADF81A0005A90948FCF760FB07
:108B30000020ADF81A0005A90548FCF7A7FB04487A
:108B4000FCF7B6FA0FB000BD003402400038024016
:108B5000000400401FB50420FCF710F86846FCF73D
:108B600040FA4FF6FF70ADF804003F20ADF800006A
:108B70000020ADF80600ADF8020069460548FCF794
:108B8000C7F901210348FCF728FA0248FCF790FADC
:108B90001FBD00000008004010B586B0044619480B
:108BA00004601020FBF7EAFF30208DF8140000204D
:108BB0008DF8150001208DF816008DF8170005A816
:108BC000FBF79CFF01A8FCF70CFA4FF47A70ADF8A4
:108BD00008003F20ADF804000020ADF80A00ADF811
:108BE000060001A90848FCF793F901210648FCF7A3
:108BF000F4F901210448FCF73FFA0348FCF758FA5E
:108C000006B010BD300000200010004010B5044632
:108C10002078722849D16078652846D1A0786228EA
:108C200043D1E0786F2840D120796F283DD1607919
:108C300074283AD16420FEF7D5FF01F08DFE642040
:108C4000FEF7D0FF01F088FE6420FEF7CBFF17A0EF
:108C5000FCF724FD6420FEF7C5FF1C48FCF78FFCE1
:108C600002F0D0FA1A494FF0FF30FEF7C7FC00BF00
:108C700000BF00BF00BF00BFBFF34F8F00BF00BFEA
:108C800000BF1448006800F4E06013490843001D69
:108C90001049086000BF00BF00BFBFF34F8F00BF87
:108CA00000BF00BF00BF00BFFDE710BD7379737444
:108CB000656D726573657420746F20626F6F746C7C
:108CC0006F61646572210D0A0000000000380140E8
:108CD000003800080CED00E00000FA0510B5094866
:108CE000FBF718FE0849884203D006490648FEF7FC
:108CF00085FC4FF480710548FBF72FFAFEF7DAFE8A
:108D000010BD0000003800087856341264040020BA
:108D100000B52DED028B93B0B0EE408A002201A980
:108D2000684602F077FA9DED011AF0EE410A9DEDDA
:108D3000001AB0EE410A0CA89FED3C1AFEF7B4FFF2
:108D40000CA903A800F01AF93948C06C404200EEA3
:108D5000100AB8EEC00A8DED100A354890ED120ADF
:108D6000B8EEC00A8DED110A90ED140AB8EEC00AF3
:108D70008DED120A03A910A800F078FB9DED100AF2
:108D8000DFED2A0A30EE600A8DED100A9DED110A22
:108D9000DFED260A30EE600A8DED110ADDED120AD4
:108DA0002448B0F9000000EE100AB8EEC00A30EE18
:108DB000C00A8DED120A9DED100ABDEEC00A10EE3C
:108DC000100A0021FEF752FC1B49096808441A49A1
:108DD00008609DED110ABDEEC00A10EE100A0021D8
:108DE000FEF744FC144949680844134948609DED66
:108DF000120ABDEEC00A10EE100A0021FEF736FC82
:108E00000D49896808440C4988600C4890ED000AB7
:108E100030EE080A80ED000A09480088401C084925
:108E2000088013B0BDEC028B00BD00000000000004
:108E30007C0D002050000020E40E0020CC0000201B
:108E4000C800002070B52DED068B84B0002600F020
:108E500077FD054642490988691A88B2FBF7FAF995
:108E600041EC1A0B9FED3F0B53EC102BFBF780F9F5
:108E700041EC190BFBF70EFA08EE100A3848058092
:108E80009FED3A0AB4EEC08AF1EE10FA03DD04B0A9
:108E9000BDEC068B70BD002418E0354951F8241054
:108EA000C1EBC102334951F824105018C11700EB2F
:108EB0005171C9102E4A42F824102E480C3050F837
:108EC000240001A941F82400601CC4B2032CE4DB97
:108ED00000F002F900B10126254890ED020AB8EE33
:108EE000C00AB0EE403A90ED010AB8EEC00AF0EECA
:108EF000402A90ED000AB8EEC00AB0EE402A9DED7F
:108F0000030AB8EEC00A1C48D0ED003A20EE230A4E
:108F1000F0EE401A9DED020AB8EEC00AD0ED003A1C
:108F200020EE230AB0EE401A9DED010AB8EEC00A09
:108F3000D0ED003A20EE230AF0EE400A3046B0EEC3
:108F4000480A00F0EBF800F0D5FAB0EE480AFFF757
:108F5000DFFEB0EE480AFFF7DBFE00BF97E7000038
:108F6000940000208DEDB5A0F7C6B03ECDCC4C3EB0
:108F7000A80E0020C40D002054000020D1ED014AAD
:108F800064EEA44AB0EE640AD1ED024A64EEA44A4B
:108F9000F0EE640AD1ED034A64EEA44AB0EE641A1E
:108FA000D1ED004A91ED015A64EE854AF0EE641A63
:108FB000D1ED004A91ED025A64EE854AB0EE642A82
:108FC000D1ED004A91ED035A64EE854AF0EE642A31
:108FD000D1ED014A91ED025A64EE854AB0EE643A51
:108FE000D1ED014A91ED035A64EE854AF0EE643A00
:108FF000D1ED024A91ED035A64EE854AB0EE644A1F
:10900000F7EE004AB0EE005A45EE604AB0EE005A64
:1090100045EE414AC0ED004AF1EE624A73EE244A41
:10902000B0EE005A64EE854AC0ED014AF1EE424AC4
:1090300073EEE44AB0EE005A64EE854AC0ED024A8F
:10904000F1EE624A73EE644AB0EE005A64EE854A6D
:10905000C0ED034AF7EE004AB0EE005A45EE404A32
:10906000B0EE005A45EE414AC0ED044AF1EE614AC5
:1090700074EE244AB0EE005A64EE854AC0ED054A0B
:10908000F1EE424A73EEA44AB0EE005A64EE854A0D
:10909000C0ED064AF1EE614A74EE644AB0EE005A41
:1090A00064EE854AC0ED074AF7EE004AB0EE005A7A
:1090B00045EE404AB0EE005A45EE604AC0ED084A1F
:1090C000704710B500F086FA10B1B2EE040A10BD78
:1090D000B7EE000AFBE700000021002208E00D487F
:1090E00050F822000B4B53F8223000FB0311521CA6
:1090F000032AF4DB64204843074B1B8813FB03F36C
:1091000090FBF3F1512903DD792901DA0120704741
:109110000020FCE7A80E00205000002010B52DED27
:10912000108B84B0B0EE40AAF0EE609AB0EE418AA7
:10913000F0EE618A0446F0EE42BAF0EE62AAB0EEBA
:1091400043BA9FEDBE0AB0EE40EA9FEDBC0AF0EED6
:1091500040EA9FEDBA0AB0EE40FA69EEA90A48EE7D
:10916000080A48EEA80AB0EE600AFDF7A9F8F0EE8A
:1091700040FA2BEEAB0A0AEEAA0A0BEE0B0AB0EE8F
:10918000409AE4B39FEDAE0AB4EEC09AF1EE10FA45
:1091900038DDB0EE490A00F063FAB0EE409A2BEEEB
:1091A000890AF0EE40BA2AEE890AF0EE40AA2BEEC8
:1091B000090AB0EE40BAA34890ED080A20EE2A0A48
:1091C000D0ED070A0BEE600A30EE0E0AB0EE40EA70
:1091D00090ED060A20EE0B0AD0ED080A0BEEE00A2D
:1091E00030EE2E0AF0EE40EA90ED070A20EE2B0A50
:1091F000D0ED060A0AEEE00A30EE0F0A00E001E0C8
:10920000B0EE40FA9048006890ED000AB5EEC00A52
:10921000F1EE10FA28DD9FED8D0AF4EEC0FAF1EEC2
:1092200010FA30D288480068D0ED000AB0EE600A2B
:1092300020EE0E1A8648D0ED000A41EE0A0AC0ED73
:10924000000A20EE2E1A8348D0ED000A41EE0A0AE9
:10925000C0ED000A20EE0F1A7F48D0ED000A41EE63
:109260000A0AC0ED000A0EE09FED740A784880ED0E
:10927000000A9FED720A774880ED000A9FED6F0AA1
:10928000754880ED000AFFF71CFF6F480068D0EDBD
:10929000010A60EE20DA6E4890ED000A0DEE8E0AAB
:1092A00030EE290AF0EE409A6A4890ED000A0DEE81
:1092B000AE0A30EE080AB0EE408A674890ED000A28
:1092C0000DEE8F0A30EE280AF0EE408AB6EE000A64
:1092D0002AEE000A20EE290AF0EE409AB6EE000AC5
:1092E0002AEE000A20EE080AB0EE408AB6EE000A26
:1092F0002AEE000A20EE280AF0EE408A574890ED48
:1093000000CA5748D0ED00CA564890ED00DAB1EED9
:109310006C0A20EE290A0DEE480A5348D0ED000AE7
:1093200000EEE80A4D48D0ED000A30EE200A80ED4C
:10933000000A2CEE290A0DEE280A4B48D0ED000A4F
:1093400000EEC80A4648D0ED000A30EE200A80ED53
:10935000000A2CEE080A0CEEE80A4348D0ED000A99
:1093600000EEA90A3F48D0ED000A30EE200A80ED59
:10937000000A2CEE280A0CEE880A0DEE690A3A481B
:10938000D0ED000A30EE200A80ED000A3348D0ED1F
:10939000000A60EEA00A324890ED001AD0ED001AE3
:1093A00041EE210A2F4890ED001AD0ED001A41EE4F
:1093B000210A2D4890ED001AD0ED001A41EE210A45
:1093C000B0EE600A00F04CF9B0EE409A234890ED00
:1093D000000A20EE090A80ED000A214890ED000AFB
:1093E00020EE090A80ED000A1E4890ED000A20EEEA
:1093F000090A80ED000A1C4890ED000A20EE090AD7
:1094000080ED000A154890ED000A8DED000A144821
:1094100090ED000A8DED010A124890ED000A8DEDE5
:10942000020A114890ED000A8DED030A69460548CD
:10943000FFF7A4FD04B0BDEC108B10BD00000000D0
:109440000AD7233C840E002084000020C2B8B23E1C
:10945000880000208C000020900000206400002084
:10946000680000206C00002070000020D1ED001A80
:1094700090ED002A61EE821A91ED012AD0ED012AC9
:1094800042EE221A91ED022AD0ED022A42EE221A71
:10949000B0EE610AD1ED031A90ED002A61EE821A56
:1094A00091ED042AD0ED012A42EE221A91ED052A0F
:1094B000D0ED022A42EE221AF0EE610AD1ED061A30
:1094C00090ED002A61EE821A91ED072AD0ED012A73
:1094D00042EE221A91ED082AD0ED022A42EE221A1B
:1094E000B0EE611A80ED000AC0ED010A80ED021AAB
:1094F0007047000010B5334890ED081AF0EE410AAD
:1095000090ED071AB0EE410AFEF700F9DFED2E0AE2
:1095100020EE200ABDEEC00A10EE100A00B22B4960
:1095200008802848D0ED060AF1EE600AB0EE600A25
:10953000FDF7A0FDDFED260A30EEC00ADFED220ABE
:1095400020EE200ABDEEC00A10EE100A00B21F493C
:1095500048801C4890ED001AF0EE410A90ED031A85
:10956000B0EE410AFEF7D2F8B1EE400ADFED160A7E
:1095700020EE200ABDEEC00A10EE100A00B2134918
:109580008880B1F90000002801DB014600E041427B
:1095900042F22832914214DB0C48B0F90200002854
:1095A00007DD0A4840885100081A00B20749488080
:1095B00007E0064840884BF6B011081A00B203498C
:1095C000488010BD840E00209F0CB345740000201D
:1095D000DB0FC93F07480078642802DB6420054997
:1095E000087004480078642801DA012070470020E0
:1095F000FCE70000050000200FB5B5EE000A114899
:10960000006880ED010A9FED100A0E48006880EDA9
:10961000000A0E4890ED000A8DED000A0C4890ED0E
:10962000000A8DED010A0B4890ED000A8DED020A4B
:10963000094890ED000A8DED030A69460748FFF7D7
:109640009DFC0FBD840000200AD7233B640000204E
:10965000680000206C00002070000020840E0020B4
:10966000F0EE400AF6EE001A60EEA11AB0EE611AB2
:10967000B0EE600A10EE100A0749A1EB600000EEA0
:10968000100A21EE002AF7EE081A42EE401A61EEA7
:10969000801AB0EE610A7047DF59375F00B50346A4
:1096A000002B3DD0012B02D0022B38D10AE01F48FD
:1096B0000078052805DB00201C4908700F2000F009
:1096C0007DF831E019480078042827DB002017498D
:1096D0000870174801780078401C154A107019B9B5
:1096E0000F2000F04DF819E0114800780B2812DC2B
:1096F000032000F027F80E480078052803D00C4816
:109700000078072803D10C2000F01CF806E00C209C
:1097100000F036F802E000200549087004E000BFC0
:109720000F2000F02DF800BF00BF00BD0600002094
:109730000700002010B5FFF7D3F80F2000F020F845
:1097400010BD000000F0010111B108210B4A1160A9
:1097500000F0020119B14FF40051084A116000F005
:10976000040119B14FF48041044A116000F008016E
:1097700019B14FF48071014A1160704718380240E6
:1097800000F0010111B108210B4A116000F0020143
:1097900019B14FF40051084A116000F0040119B1E9
:1097A0004FF48041044A116000F0080119B14FF4F0
:1097B0008071014A116070472838024000F00101B1
:1097C00029B11149096881F008010F4A116000F0C0
:1097D000020129B10C49096881F400510A4A11605B
:1097E00000F0040129B10849096881F48041064A62
:1097F000116000F0080129B10349096881F4807102
:10980000014A116070470000143802403648374959
:109810000860FFF763FAFFF78DFF01F0E9FCFEF740
:1098200099F901F0C5F900F095F831A0FBF736FF82
:10983000C820FEF7D7F9FDF72DFBFFF7DDFEFDF79A
:10984000F9FF00F069FA3048007820F0100010307D
:109850002D49087000202D4908702DA0FBF71EFF30
:1098600041E0314890F82D0018B92F4890F82C00AD
:1098700018B10120FFF712FF0BE023480078C0F376
:10988000400018B10220FFF709FF02E00020FFF7B7
:1098900005FF00F0B3F9FDF78FFDFDF77DFD00F04A
:1098A0009BFAFEF7BFF92149B1F90000002801DB5E
:1098B000014600E04142B1F5FA5F09DA1B49B1F90E
:1098C0000210B1F5FA5F01DB012100E0002151B186
:1098D0000D48007820F002000B4908700846007817
:1098E00020F004000870BCE70040000808ED00E02C
:1098F000737561762073797374656D20737461720A
:1099000074210D0A00000000FC0100200500002069
:10991000737561762073797374656D207265616407
:1099200079210D0A000000007C0D00207400002049
:1099300002468A4201DD104670470846FCE70000F7
:1099400010B50348FBF7D8FA0446204610BD0000C6
:109950000008004010B5FFF77DF80020024908809C
:1099600048808880C88010BD0002002010B50A48D9
:1099700001880A48FBF764FB074841880748FBF762
:1099800066FB054881880548FBF768FB0248C188EB
:109990000248FBF76AFB10BD0002002000040040F3
:1099A0003EB5062301AA1946D02001F0BFF808B938
:1099B000012000E0002005469DF80900C007400F87
:1099C0009DF8071001F0010140EA41009DF80510E3
:1099D00001F0010140EA0104DDB1D4B1012C06D14E
:1099E00001201D4908701DA0FBF758FE33E0022C32
:1099F00003D10020184908702DE0032C01D0072C5A
:109A000003D100201449087025E01BA0FBF746FE97
:109A100021E001236A460C21D02001F087F808B923
:109A2000012000E0002005469DF8000000F00F0432
:109A300005B11CB910A0FBF731FE0BE0042C06D1D8
:109A400001200549087005A0FBF728FE02E0002070
:109A50000149087000BF3EBD4C0000204D505536F6
:109A60003035302048414C465F5245534F4C555499
:109A7000494F4E0D0A0000004D505536303530200C
:109A80005245564553494F4E204552524F52210D93
:109A90000A00000010B500BF6420FEF7A3F800F034
:109AA000ADF880226B21D02001F04EF900B1F3E730
:109AB0006420FEF797F803226B21D02001F044F9CF
:109AC0000220FEF78FF800226C21D02001F03CF933
:109AD0000220FEF787F801221921D02001F034F985
